:020000041000EA
:10000000002008205D0100101B0100101D010010E0
:100010001101001011010010110100101101001058
:100020001901001019010010190100101F01001022
:10003000110100101901001021010010230100100E
:100040001101001011010010110100101101001028
:100050001101001011010010110100101101001018
:100060001101001011010010110100101101001008
:1000700011010010110100101101001011010010F8
:1000800011010010110100101101001011010010E8
:1000900011010010110100101101001011010010D8
:1000A00011010010110100101101001011010010C8
:1000B00011010010110100101101001011010010B8
:1000C00011010010110100101101001011010010A8
:1000D0001101001011010010110100101101001098
:1000E0001101001011010010110100101101001088
:1000F0001101001011010010110100101101001078
:100100001101001011010010110100101101001067
:10011000EFF30580103800BE00BE00BE00BE00BE7A
:1001200000BE00BEF2EB8871FC8E00101C8F001028
:10013000A001001090A31AE7D3DEFFFF42012110B7
:10014000FF0100002C990000793512AB4FF0000040
:100150001E49086006C881F3088810474FF05040D8
:10016000006810B14FF00000F2E70DA40ECC00299A
:1001700002D000F012F8F9E71549164A002000E015
:1001800001C19142FCD11449884714498847144958
:10019000884700BEFDE701C901C29A42FBD3704700
:1001A0001C8F001010010020580C0020649A0010D1
:1001B0000000082000000820649A001000100820A9
:1001C00000100820000000007047000008ED00E06B
:1001D000580C00208C690220B54A0010A9040010B8
:1001E000AD4A0010F8B500BF064B0749C91A89107F
:1001F00048BF0131491003D0044B0BB101481847E7
:10020000704700BF580C0020580C00200000000070
:1002100008B5054B1BB105490548AFF30080BDE8A3
:100220000840FFF7E1BF00BF00000000E41000201D
:100230002C5D00102DE9F8435C4D5D4F5D4EDFF8FD
:100240008C91DFF88C8104F0EFFEC0F30723C4B279
:100250001E2BF8D801A252F823F000BF7B03001038
:10026000470200104702001047020010470200102A
:10027000470200104702001047020010470200101A
:10028000470200104702001047020010470200100A
:1002900047020010470200104702001047020010FA
:1002A0004702001047020010610300102B030010EA
:1002B000470200101F030010130300100703001073
:1002C000F9020010D9020010D9020010D902001062
:1002D000D9020010E30200102B683748DB6A984708
:1002E000B1E7A32C2B6859D0A42C51D0A12C49D014
:1002F000DB6A32489847A6E7338803F47F4344EA31
:10030000030030809FE73388DBB243EA0423338065
:1003100099E73B8803F47F4323433B8093E73B8883
:10032000DBB243EA04233B808DE704F00F0320098E
:1003300089F8003088F8000098F80020204999F8E2
:100340000030204804F06CFB2B681E48DB6A98479D
:100350002B6898F80000DB6899F80010984772E75E
:1003600022461949174804F05BFB2B681548DB6AE5
:100370009847204601F090FA65E72B6820469B6B72
:10038000984760E700225B6A32803A8098475AE7D4
:10039000DB6B9847002333803B8054E738883188F3
:1003A0001B6980B289B298474DE700BF3011002029
:1003B00082690220846902209C5D0010305D00107B
:1003C000885D00108C0F0020585D001086690220A7
:1003D0008869022010B5084C2068012806D000204A
:1003E00001F082F901230120236010BD01F07CF9A6
:1003F00000230120236010BD8006002010B584B0CA
:1004000003AB02AA01A9044602F05EFB18B921461B
:10041000044801F007FC0198DDE9021202F092FAAB
:1004200004B010BDA85D0010002110B5184C08469E
:1004300023681B699847236800210420DB689847DC
:1004400023681448DB6A9847236800210320DB688F
:10045000984723681048DB6A9847236806200021E4
:10046000DB6898470D4B1A782368012A94BF0C4823
:100470000C48DB6A98472368042100201B699847D1
:1004800023680021BDE810400220DB68184700BF48
:1004900030110020DC5D0010085E00108969022028
:1004A000205E0010605E001030B5384887B0FFF75E
:1004B000A5FF00F07DF804F0E1FB3548FFF79EFF53
:1004C000022001F037F94FF0020C8646314C324DD4
:1004D00003234FF420723021002085F800C0C4F8B7
:1004E00000E000F0B7FC03234FF42072312100201C
:1004F00000F0B0FC294D03234FF42072322100207C
:1005000000F0A8FC4FF4207233210323002000F0F8
:10051000A1FCFFF789FF284602F022F923689B68B7
:100520009847044601F00CFF00214FF47A721C4BEF
:10053000CDE90115009323B283FB022302F080F87A
:10054000184804F0C1FD0120174C184D22682B6893
:10055000516803F1080C00FA0CF0014204D152F882
:100560002C1051680142FAD00DF117010DF116005F
:1005700001F0D0F938B19DF817009DF8163043EA24
:10058000002004F049FD22682B68EDE7400D0300D0
:10059000F04902003011002089690220D80D0020A6
:1005A000D5030010350200108C0600208C100020AE
:1005B000F0B52D498BB02D4804F0E6FB00242C4B00
:1005C0002146054629481C6004F0BAFB0721192082
:1005D00001F0F6FA0123192221462448009304F081
:1005E00067FC26460721204601F0EAFA4FF0000397
:1005F00043EC4440002220460121013401F0FEFA80
:100600000E2CEFD14FF480304FF4F8314FF44023EB
:100610009FED137BCDE902010596049302AC0DF129
:10062000180C2A1DEF0147EA023794E80F008CE806
:100630000F000E4E07979CE80F0084E80F0023463A
:100640002A46002130468DED047B04F077FC3368A8
:1006500043F0010333600BB0F0BD00BFAFF3008087
:100660000000D900390310044C6000100000305025
:100670008C1000202DE9F8430124DFF89890DFF872
:100680009880214ED9F80030D8F800101F48326801
:1006900004FA01F104FA03F3056804FA02F21C4FAC
:1006A0000B43134325EA03033D46036004F0E6FBD6
:1006B00038464FF00041D9F80020DFF860C0131D24
:1006C00004FA03F3CCF8003002EB4202D8F8003011
:1006D000D20017441A1D04FA02F2CCF8002003EBF2
:1006E00043033268DB001D4402EB4203DB000432AB
:1006F00018449440CCF80040396039602960296082
:1007000001600160BDE8F8838406002000002050ED
:10071000D0102050D8100020880600200020205043
:100720002DE9F04F2DED028B144691B00490069107
:10073000FFF7A0FF052C00F22B81DFE814F0060084
:10074000060055015501060055019949994804F0E4
:100750001BFB99498146974804F016FB9749804650
:10076000944804F011FB9FED8E8B954B074619685A
:10077000904804F0E5FA934ADFF860B211688D48BA
:10078000039204F0DDFA8B48DBF8001004F0D8FA8D
:100790004FF4402A00218DED088B09F1060609F17E
:1007A0000103360346EAC316854B08AC18680CAD46
:1007B0000B91CDF828A0059094E80F0085E80F0074
:1007C0000D96012695E80F00DFF814C284E80F00AB
:1007D00006211020CDF82CC0CDF820A001F0F0F9B2
:1007E0003346102205990096724804F061FB2346B7
:1007F0004A4605996F4804F0A1FB4FF440330C932F
:1008000008F10D0308EB06021B0343EAC21323F0B1
:10081000C043039A43F08043D2F800900D936A4B93
:10082000062111200F93CDF838A001F0C9F9334605
:100830001122494600965F4804F03AFB42462B4697
:1008400049465C4804F07AFB00218DED088B9FED52
:10085000567BCDE90AA107F1080CBB1C4FEA0C3C02
:100860004CEAC31C94E80F0085E80F00CDF834C0B3
:1008700095E80F0084E80F00062112208DED0A7B19
:10088000DBF8008001F09CF90621132001F098F9B3
:100890000621142001F094F9032312224146009608
:1008A000444804F005FB234641463A46414804F0DB
:1008B00045FB434B3F4C196801F110039E406368B0
:1008C0003342FCD140F247150122039B18680B1DEF
:1008D00044F8235000F11003364D9A406B681342E0
:1008E000FCD140F2DF160122DBF80040031D45F881
:1008F0002360DFF8C08004F110039A40D8F8043078
:100900001342FBD101259F23049E05FA00F0D6F87F
:1009100000C0261D48F8263005FA01F3034305FA06
:1009200004F10B43190201F47061DFF8B8E003F041
:100930000F030B43254A264FCEF800302846C7F850
:1009400000C0176804F04EFB4FF0A041214B8540DA
:10095000820118600A44C1F86454D3685B01FCD476
:10096000C1F80C54A021049B07EB8606136007F125
:100970002F4303F560031B0D04EBC304164B5660B5
:1009800003EA403343EA444343F0110391601361A7
:1009900011B0BDEC028BBDE8F08F00BFAFF300805B
:1009A0000000010000F0010000000C405202300C79
:1009B000FC60001000002050D8600010BC600010E7
:1009C000D810002088060020204600449006002011
:1009D0003811002020110020FDFF01FC84060020BA
:1009E0000002000400202050AD49AE4804F0CCF9CC
:1009F000AD490746AB4804F0C7F9AC498246A9485F
:100A000004F0C2F903469FEDA28BA94AA5481168DC
:100A1000059304F095F9A749DFF8B8B2A14803910E
:100A2000096804F08DF99F48DBF8001004F088F99C
:100A30004FF4402900208DED088B9D4A07F10806F0
:100A4000CDE90A907B1C360346EAC316136808AC4E
:100A50000CAD4FF4C028079394E80F0085E80F0011
:100A60000D96012695E80F00DFF86CC284E80F00B0
:100A700006211020CDF82CC0CDF8208001F0A0F880
:100A80003346102207990096864804F011FA23464F
:100A90003A460799834804F051FA0AF10D030AEB2C
:100AA00006021B0343EAC213039F23F0C04343F033
:100AB00080433F680D93804B06211120CDF8308094
:100AC000CDF838900F9301F07BF833463946112268
:100AD0000096744804F0ECF939462B4652467148AA
:100AE00004F02CFA00208DED088B059BCDE90A90CF
:100AF0000FF2A419D9E9008903F1080C4FEA0C3C64
:100B000002334CEAC31C94E80F0085E80F00CDF8CF
:100B100034C095E80F0084E80F0006211220DBF8AE
:100B20000070CDE90A8901F04BF80621132001F08D
:100B300047F80621142001F043F803231222394616
:100B40000096584804F0B4F92346059A39465548AA
:100B500004F0F4F9564A534C126802F110039E4017
:100B600063683342FCD140F28F250121039B186852
:100B7000131D44F8235000F110034A4C9940636858
:100B80000B42FCD140F2DF160121DBF80050031DBF
:100B900044F82360434F05F1100399407B680B42F2
:100BA000FCD1012340F23F1E4FF0A04103FA00F0B8
:100BB00003FA02F205F1040C024303FA05F52A4395
:100BC000100200F470603D4E3D4C02F00F020243F3
:100BD00047F82CE03260226803FA02F0394B9201A8
:100BE0001D680A44C1F86404D3685E01FCD4C1F8EE
:100BF0000C0401204FF0A046334F3B689A01984007
:100C00003244C1F86404D3685B01FCD4C6F80C0418
:100C1000012004F0E7F92060012004F0E3F901214C
:100C2000D4F800C0DBF80040284A04F1040E05EBBC
:100C30008E04049D386002EA4C322F684FEA8C150E
:100C400005F1A04542EA4032214B2F6042F4802258
:100C50006C60069C03EA403342F01102AC6043EA48
:100C60004C332A618001049A00F1A04043F4FC0354
:100C7000026043F0090301FA0CF2456081600361F0
:100C8000C6F8502411B0BDEC028BBDE8F08F00BF58
:100C90000000010000F0010000000C405202300C86
:100CA000A0600010000020507C6000106060001008
:100CB000D810002088060020204600440020205044
:100CC000201100209006002024110020FD1F00FCB0
:100CD000FD1F7EFC8406002000020004024B1B68FE
:100CE0005B6C9862704700BF341100200021024BFA
:100CF00008461B681B691847341100200A4B1B6803
:100D00005B6C187205280AD8DFE800F006060303BA
:100D10000603064A1A607047054A1A6070470222A5
:100D200002491A7219607047341100208002E001F4
:100D30004001F0000F4B1B685B6CB3F800C08445AA
:100D400017D900B5B3F802E08E4510D91A7C12FB12
:100D500000F258685B7C92B213FB01F39BB294459E
:100D600098BF00229E4598BF0023028043805DF813
:100D700004FB704734110020024B1B685B6C987CAD
:100D8000704700BF34110020024B1B685B6C5B682E
:100D9000D880704734110020024B1B685B6C5B6885
:100DA000D888704734110020024B1B685B6C5B686D
:100DB0001871704734110020024B1B685B6C5B6834
:100DC0005871704734110020024B1B685B6C187619
:100DD0005976704734110020024B1B685B6C187EFB
:100DE000704700BF34110020064B10B51B6800216E
:100DF0005C6CE269A06A04F0F9FC002263681A6086
:100E000010BD00BF34110020114B30B51B685C6C65
:100E100040EA0103B4F802E0DB0F8E45D8BF43F08F
:100E20000103B4F800C06BB984450BDD01FB0C0075
:100E3000A56A4110C0076B5C05D5208C034043EACE
:100E400002126A5430BD608C03401A436A5430BDAC
:100E5000341100202DE9F041214C2468D4F844805D
:100E6000B8F800C0844519DD1F46B8F802300E46B8
:100E70008B4213DD83189C45B8BFACEB000C1446C5
:100E8000B8BF0CF1FF34C207054620D4E30715D4E0
:100E90006210002A02DDB6F5F07F01DBBDE8F081CB
:100EA000D8F8280006EB86066D1005EB861547EA94
:100EB00007112844BDE8F04104F098BC2819013816
:100EC0003A4600B231B2FFF79FFF013CE0E73A46F5
:100ED00009B200B2FFF798FF0135013CD6E700BF29
:100EE000341100202DE9F04F254C8A462668591808
:100EF000746C9DF824706588A94203DD6B1EA3EB1A
:100F00000A031BB29042844637DC9A4535DC02F175
:100F100001095D1C4FEA071853460FFA8CF109E0EE
:100F2000228C024042EA08020BF80E200133AB4249
:100F30001DD0746C2288608841EA030E6245C8BFE8
:100F40009842F3DD1EF4004FF0D103FB02C2D4F847
:100F500028B04FEA620ED2071BF80E00E0D4628C74
:100F6000013310403843AB420BF80E00E1D10CF1D5
:100F7000010CCC4501D0746CCEE7BDE8F08F00BF0A
:100F8000341100202DE9F04F91469A46454B89B027
:100F90001C689DF84850D4F844B008221023074636
:100FA0008846009500B209B2FFF79CFF9BF81160DC
:100FB00019FB06F2002E71D03B49561E0E44C1F1BA
:100FC00001018A1A5FFA8AFA2901BBB204914FEA39
:100FD0000A11CDE9051B19461FFA88F8079216F881
:100FE00001BF0A4607270FFA88F9039615E07BB977
:100FF0000EFB0900D6F828E04FEA600CC0071EF887
:101000000C3033D5308C1840059B18430EF80C007B
:10101000013F01327B1C92B235D0666C42EA080077
:101020007388B6F800E09945B4BF002301234BFA5A
:1010300007FC43EAD03310B28645D8BF43F0010322
:101040001CF0010FD3D1002BE2D10EFB0900D6F822
:1010500028E04FEA600CC0071EF80C300DD5308C2C
:101060001840049B18430EF80C00D1E7708C034025
:101070004AEA03030EF80C30CAE7708C03402B4396
:101080000EF80C30C4E7069B039E587C079B08F1C2
:1010900001089A1990421FFA88F8A0DC09B0BDE84F
:1010A000F08F00BF34110020207600102DE9F04FA2
:1010B000774C022BD4F800908846D9F84440164665
:1010C000656887B02F88B5F802B00AD00246019350
:1010D00038460B4600965946FFF754FF07B0BDE867
:1010E000F08F23883AB29A421546F7DA63880FFAEE
:1010F0008BF19942F2DA12F10B0FEFDB11F10F0FC6
:10110000ECDB01F1100C6345AFBF4FF0100A03F1A7
:10111000FF3AAAEB0B0A1FFA8AFA102A0FFA8AFA88
:101120003BDC514539DCCDE9037B0AF1010A0B4672
:10113000934609E0248C0EEA040402F80C400133C3
:10114000534521D0D9F844402788B4F802C0AF42B3
:101150008CBF002201229C45D8BF42F00102002A28
:10116000EDD1002BEBDB03FB0757A26A4FEA670CBC
:10117000FF0712F80CE0DDD4648C01330EEA040E94
:10118000534502F80CE0DDD10135112D5A4602D04D
:10119000D9F84440CBE7DDE9037BB04500EB8000A4
:1011A00049D03C4B0BF1100900EB030A07F10A0090
:1011B00083B204933046134646465246B846DA4652
:1011C00007469B461FFA89F9059112F8015BCDF895
:1011D0000C80544690460223EA0721B204F102042F
:1011E0004CBF0096009758461A46A4B2FFF77AFE05
:1011F000A1454FEA5505EED14246DDF80C8008F1D5
:1012000002031FFA83F8049B98453ED13E46D3461D
:1012100005990FFA88F701E00FFA8BF102230BF121
:10122000020B38461A4600961FFA8BFBFFF75AFE50
:10123000D945F1D152E7174E07F10A0A06441FFAC1
:101240008AFACDF80CA0B246464690460BF110093A
:101250001FFA89F95C461AF8015BE90706D50223F3
:1012600040461A46009621B2FFF73CFE0234A4B273
:10127000A1454FEA5505F0D1039B0237BFB2BB42EF
:101280003FF42CAF0FFA87F8E4E70FFA88FB9CE7EE
:10129000341100201461001038B5224B0A281D6853
:1012A0006C6C2DD00D281AD0092830D0A37C627E1A
:1012B000217EFFF7FBFE6168227C0B8820881A44A0
:1012C00092B290424B880A800DD8627C134400226F
:1012D0009BB24B800A8062889A4207D938BD626807
:1012E00053880021118062889A42F7D86C6C0021E3
:1012F000E269A06A04F07AFA002263681A6038BDD5
:101300006268637C51880B449BB25380E9E7616853
:1013100094F824300A8820881A4490424B88E2DDF1
:101320000A80D8E734110020F8B50546007820B3CC
:101330000027254B1E680A28746C2ED00D283FD03C
:10134000092832D0A37C627E217EFFF7AFFE616860
:10135000227C0B8820881A4492B290424B880A80E3
:1013600004D8627C0F8013449BB24B8062889A42FF
:1013700004D915F8010F0028DDD1F8BD746C0021E7
:10138000E269A06A04F032FA63681F6015F8010F81
:101390000028F2D00A28746CD0D16268637C51882E
:1013A0000B449BB253801780E0E7616894F82430C7
:1013B0000A8820881A4482424B88D7DA0A80D5E707
:1013C00062685388EFE700BF341100202DE9F04137
:1013D00005460078884684B030B30027544B1E6819
:1013E0000A28746C7ED00D2800F09F80092800F038
:1013F0009080A37C627E217EFFF758FE6168227C8C
:101400000B8820881A4492B290424B880A8004D8F4
:10141000627C0F8013449BB24B806088984252D903
:1014200015F8010F0028DBD100244246414901A8EC
:1014300003F0F6FA9DF804008DF80C4038B3274607
:101440003B4B1E6801340A28756CE4B234D00D2879
:101450005BD009284ED0AB7C6A7E297EFFF726FE42
:1014600069682A7C0B8828881A4492B290424B887B
:101470000A8004D86A7C0F8013449BB24B806A8830
:101480009A4207D90DEB040318790028DAD104B089
:10149000BDE8F081756C0021EA69A86A04F0A6F93C
:1014A0006B681F600DEB040318790028EFD001343E
:1014B0000A28756CE4B2CAD16A686B7C51880B4407
:1014C0009BB2538023E0746C0021E269A06A04F0AF
:1014D0008DF963681F6015F8010F0028A4D00A2851
:1014E000746C80D16268637C51880B449BB25380DA
:1014F000178092E7696895F824300A8828881A448A
:1015000082424B88BBDA0A80B9E76A685388178041
:10151000B5E7616894F824300A8820881A4482422A
:101520004B88BFF67AAF0A8077E762685388DFE7B7
:1015300034110020A45E00102DE9F0430546007828
:101540008846DFF8A09185B038B30027D9F800604D
:101550000A28746C00F091800D2800F0B3800928EF
:1015600000F0A480A37C627E217EFFF79FFD61686E
:10157000227C0B8820881A4492B290424B880A80C1
:1015800004D8627C0F8013449BB24B8062889A42DD
:1015900063D915F8010F0028DAD1002542465049D9
:1015A00001A803F03DFAD9F800809DF80400D8F8AE
:1015B00044408DF80C502646002840D02F460A287B
:1015C00005F10105EDB225D00D286AD009285CD0BF
:1015D000A37C627E217EFFF769FD6168227C0B8817
:1015E00020881A4492B290424B880A8004D8627CC8
:1015F0000F8013449BB24B80D8F8446062889A42B3
:101600000FD90DEB05031879C8B101350A28344606
:10161000EDB2D9D16268637C51880B449BB2538090
:1016200041E0F269B06A002104F0E0F87368D8F88C
:1016300044601F600DEB050318790028E5D10024F4
:101640007268737C51880B4471889BB299425380B5
:1016500014803AD905B0BDE8F083746C0021E269CA
:10166000A06A04F0C3F863681F6015F8010F002832
:1016700093D00A28746C7FF46FAF6268637C5188E2
:101680000B449BB25380178080E7616894F8243044
:101690000A8820881A4482424B8800DA0A8026464B
:1016A000ACE76268538826461780A7E7616894F81C
:1016B00024300A8820881A4482424B88BFF666AFDD
:1016C0000A8063E762685388DDE72146F269B06A01
:1016D00004F08CF873681C6005B0BDE8F08300BFAF
:1016E000A45E001034110020114B70B51B6882B04D
:1016F0005C6C6268237E1579B2F800C05188667E02
:1017000065B10446507900B144B10124127A6046B3
:1017100000960194FFF736FC02B070BD01246046CC
:10172000202200960194FFF72DFC02B070BD00BF8F
:10173000341100202DE9F84F0546482001F0F6FD50
:1017400006463F4F2C203E6001F0F0FD0446002E7F
:101750006DD000286BD00C2000F084F90346394E80
:101760004FF416312A4638483360FEF7D9FF012D71
:101770004BD9042D49D03B68DFF804915C6400F03C
:1017800033F9072360604FF416312846042523837C
:101790003368DFF8F0801A68DFF8ECB0E2609E880A
:1017A000DFF8E8A026829B796261A374264B84F857
:1017B00024501B68254EA362254B264DC4E9071310
:1017C000FFF79CFA3868244B244A254CC360254B0C
:1017D0002549C0E900428363244A254BDFF8B0E085
:1017E000DFF8B0C0C162C0E906982249C0E90965C6
:1017F000C0E90C23C0F810B0C0F83CA0C0F808E065
:10180000C0F814C00162BDE8F88F4FF400721A4BA3
:101810000F20C3F87021194900F00AFB01210F20A5
:1018200000F0E0FA00210F2000F032FBA3E7304681
:1018300001F098FD204601F095FD0020E3E700BF90
:1018400034110020D010002094060020ED0C001070
:101850000F00F000FD0C0010C90D0010790D0010F4
:10186000D90D00109912001029130010391500101D
:10187000CD130010DD0C00100020205011010020BD
:10188000A90D0010B90D0010350D0010E90D001064
:10189000990D0010890D001070B50546164C90B0DA
:1018A0002046164E00F014F9154994F904206846B4
:1018B00003F0B6F833686846DB6A9847204625711E
:1018C00000F0E2F80F4994F90420684603F0A8F804
:1018D00033686846DB6A984740F604020A480B4BB7
:1018E0000B4902601A608B6832EA0303FBD100F0F7
:1018F000C5F810B070BD00BF3C11002034110020AD
:10190000A85E0010C85E00100020024000300240B7
:10191000000002404FF0010C10B5083386465068B5
:101920000CFA03F4044201D0002010BD52F8233019
:101930006046C3F304220A708EF8003010BD00BF69
:10194000B0F5207F02D2024B1B681880704700BFA1
:101950002C110020B0F5F07F02D2024B1B6858809A
:10196000704700BF2C110020B0F5207F02D2054B3C
:101970001B681880B1F5F07F02D2024B1B685980BA
:10198000704700BF2C110020014B1B681871704775
:101990002C110020014B1B68587170472C1100203E
:1019A000014B1B68D88070472C110020014B1B682D
:1019B000D88870472C110020014B1B6818727047A3
:1019C0002C110020014B1B68188870472C11002037
:1019D000014B1B68588870472C110020014B1B6875
:1019E000187970472C11002010B5382001F09EFCAA
:1019F000E8B1002280230E4C0E49206041600E4C5D
:101A00000E490260C0E903410D4C0E490372C0E962
:101A100005410D4C0D49C0E907410D4C0D4944638A
:101A200041620D4C0D49C0E90A410D49016310BDE9
:101A30002C1100200101FA00411900105519001065
:101A4000691900108919001095190010A1190010CA
:101A5000AD190010B9190010C5190010D1190010E6
:101A6000DD1900100A38C0B203289ABF024B53F8A0
:101A700020000020704700BF1066001000221146B1
:101A8000104601F035B900BF0F4B1B78D3B170B5CC
:101A90000024264684B0451E15F801CF02235021AC
:101AA00003AA8DF80C400948009601348DF80DC04A
:101AB000A4B203F0B3FB0A2000F0EAFC442CEBD103
:101AC00004B070BD704700BF87690220E4060020A3
:101AD0002DE9F041374B80461B7884B0002B62D053
:101AE00000240127461E0025012350210DF10B0281
:101AF000314800978DF80B4003F090FB01235021F3
:101B00002D4803AA009503F091FB01349DF80C3099
:101B1000442C06F8013FE6D1284CD8F80030A34207
:101B200002D104B0BDE8F081682603AA0223502147
:101B300000952148ADF80C6003F070FB0A2000F01E
:101B4000A7FC4FF4807202235021ADF80C200095C1
:101B500003AA194803F062FB0A2000F099FC4FF435
:101B600000724FF4407602235021ADF80C2000950E
:101B700003AA114803F052FB0A2000F089FC02235B
:101B8000502103AA00950C48ADF80C6003F046FB09
:101B90000A2000F07DFC0223C8F8004088F80430D9
:101BA00004B0BDE8F08102220360027104B0BDE818
:101BB000F08100BF87690220E4060020CE0A006899
:101BC00010B44FF480740C4B53F8202003EB8003C7
:101BD000C00082F0400200F1804003F5805C02F01A
:101BE000C00200F5203003F54053CCF800204160DE
:101BF0001C605DF8044B70470480034010B4084C2F
:101C0000C90041EA820154F8202004EB80035140CE
:101C100003F5805301F00C015DF8044B1960704727
:101C2000048003400FB400B583B0049C074803F060
:101C300069F83CB105A92046019102F007FF04486C
:101C400003F060F8012002F019FF00BF185F0010D8
:101C5000285F0010EFF3108072B6064BD3E8CF1F59
:101C600001220029FAD1C3E8412F0029F6D1BFF3A0
:101C70005F8F70476B0F00200023034AC2E88F3F3D
:101C800080F31088704700BF6B0F002070B5864648
:101C9000EFF3108572B6124CD4E8CF6F0120002EFE
:101CA000FAD1C4E8460F002EF6D1BFF35F8F4FF094
:101CB000010CC80801F007030CFA03F31EF800C07A
:101CC0001CEA030608D14CEA030C0EF800C0C4E875
:101CD0008F6F85F3108870BD1046FFF7A3FF00BF1C
:101CE0006B0F0020F8B5EFF3108772B61C4ED6E8E4
:101CF000CF5F0124002DFAD1C6E8454F002DF6D163
:101D0000BFF35F8F9A421BD8012502E00132934254
:101D100022D3D40810F804E002F0070C05FA0CFCFA
:101D20001EEA0C0FF2D14EEA0C0E00F804E0104649
:101D30000023C6E88F3F87F31088984207DBF8BD81
:101D40000023C6E88F3F87F310884FF0FF3000294B
:101D5000F5D00698FFF766FF4FF0FF30E8E700BFC9
:101D60006B0F0020044A1078431CDBB2182B28BFED
:101D700010231370704700BFC80600204FF0E02208
:101D8000936843F000539360704700BF0021044BF9
:101D900003F12002C3E88F1F01339342FAD1704749
:101DA000600F00204FF0E0234FF08032C3F8002492
:101DB000C3F80424C3F80824C3F80C24C3F810247F
:101DC000C3F81424C3F81824C3F81C24C3F820242F
:101DD000C3F82424C3F82824C3F82C24C3F83024DF
:101DE00062B67047012300F01F029340400941B1E1
:101DF000800000F1604000F56140C0F88031036070
:101E00007047024A203042F82030704700E100E07D
:101E10000123064A410952F8212000F01F0003FA6D
:101E200000F01040003818BF0120704700E100E0CA
:101E3000F8B50D46EFF3108772B6124ED6E8CF2FE5
:101E40000123002AFAD1C6E8423F002AF6D1BFF3A7
:101E50005F8F0D4B00F110049B680C4A53F824303F
:101E6000934203D0994201D000F0D8FF064B9B6803
:101E700043F82450BFF35F8F0023C6E88F3F87F3FA
:101E80001088F8BD690F002000ED00E0110100107E
:101E90004FF0FF0C20F0030303F1604303F56443AC
:101EA00000F003001A68C0000CFA00FC22EA0C02E1
:101EB00081400A431A607047014B0B44036070472E
:101EC000600F002070B5104C104DAC420ED2FF26B2
:101ED000236863B1FFF746FF01462046FFF7ECFF9A
:101EE000A680BFF35F8F0834AC42F1D370BDFFF71B
:101EF00039FF01462046FFF7DFFF2671BFF35F8FF2
:101F00000834AC42E4D370BD480C0020580C0020CB
:101F10000D4B1A68EFF3108172B6D2E8CFCF0120D3
:101F2000BCF1000FF9D1C2E84C0FBCF1000FF4D1A5
:101F3000BFF35F8F00221B68C3E88F2F81F31088E7
:101F400040BF002000217047281100200000000041
:101F50002DE9F04F2DED028B85B0EFF30583DBB259
:101F6000103B9A0818BF01224FF0010103F0030B48
:101F700018BFAF4DAF4B08BFAF4D0BEB820253F80C
:101F8000226001FA0BF205F541539FEDA78B0192F8
:101F90005A602FE0B3881C0440F19380B379002B82
:101FA00040F0DD80B6F90820002AC0F21E81736976
:101FB00002EB420203EBC203D3E90247B7F1FF3F52
:101FC00008BFB4F1FF3F0ED005EB8B01AB6A0A6985
:101FD000D21AE31A934205D301232A6A03FA0BF3B8
:101FE000134200D10C61284600F01AFCA042B9410E
:101FF000C0F2FB80B6F90830019A002B0093EA6327
:10200000C8DBD6F8148003EB4309284608EBC90760
:10201000D7E9024A00F004FCA04271EB0A01B9DBE7
:10202000BAF1000FC0F2C380D7E90431834A93426A
:1020300000F0ED807A88B6F9080092B242EA0040DA
:10204000984702460B4652EA030100F0B080002B8D
:1020500080F2D180B4EB020E6AEB030A38F9393012
:10206000C7E902EA002B95DB716903EB430201EB40
:10207000C202D2E90270BE457AEB000C4FEA43027D
:1020800088DBB4462CF8083F06E003EB430001EB85
:10209000C0005A00D0E90270BE451A447AEB000035
:1020A00001EBC20404DB31F93230A446002BECDA38
:1020B00028F83930009BACF80030B3881C043FF599
:1020C0006DAF3369EFF3108272B6D3E8CF0F012101
:1020D0000028FAD1C3E8401F0028F6D1BFF35F8F74
:1020E0004FF6FF74B0880023316900B2B480C1E8B4
:1020F0008F3F82F310889842FFF650AF0746A946FB
:10210000746906F1080807EB470E04EBCE03D3E928
:102110000250B6F90830C446002B13DBB2460097D4
:1021200004E034F936309446002B09DB03EB430618
:1021300004EBC602D2E90271BD4270EB0101F0DA94
:102140005646009FACF8007034F93E7024F83E30DB
:10215000002FD8DAB3794D46002B3FF423AF00238C
:10216000B371B6F9083006F10808581C3DD01A467C
:10217000776903E08046591C3FF416AF03EB430137
:1021800007EBC100B0F802C01C461CF4004F9E468D
:1021900037F93130EED0944280ED028B05D0A8F8AB
:1021A0000030328927F8312034817246E3E738F86D
:1021B000393033813369EFF3108272B6D3E8CF0F31
:1021C00001210028FAD1C3E8401F0028F6D1BFF34F
:1021D0005F8F7388316928F83930009B7380002342
:1021E000C1E88F3F82F31088D4E640BF05B0BDEC54
:1021F000028BBDE8F08F2846CDE9022300F010FBEA
:10220000029A039B10EB020E43EB010A26E70846F5
:102210000B69029198470028C9D00299D1E900239F
:1022200011E700BFAFF30080FFFFFFFFFFFFFFFFDD
:1022300000800B400011002000000B40511F0010D7
:102240002DE9F84F364C25692DB1BDE8F84F0A212C
:102250003448FFF731BEDFF8E4800321404600F048
:10226000CDFA0326C4F80C80FFF77CFD4FF0504CEC
:102270002D4B267003442361DCF800300F2163707E
:10228000636961801D834FF00405A3F878504FF017
:102290000505A3F890504FF00605A3F8A8504FF09D
:1022A00007050E214FF6FF7208274FF00A0EA3F81C
:1022B000C0504FF001094FF00C0C4FF0020B4FF0E3
:1022C000090A0D204FF00B05A3F868111749A280E9
:1022D000A3F808E1A160A3F848B0A3F8F0A0A3F820
:1022E0002051A3F838C1A3F85001A3F83090A3F807
:1022F0006060A3F8D8701A800D4B3046C8F8207083
:102300000C49DC60FFF794FD49463046FFF76AFD53
:10231000094B0A211F640348BDE8F84FFFF7CCBD05
:10232000CC06002028110020600F0020FFFF1000C5
:1023300000110020511F001000200B4000000B4036
:1023400000487047CC0600200146F0B50069EFF365
:10235000108772B6D0E8CF5F0124002DFAD1C0E813
:10236000454F002DF6D1BFF35F8FB1F902E04C6904
:102370000EEB4E0CBEF1000F4FEACC05086904EBE2
:10238000CC0C3CDB665B4E800026C0E88F6F87F389
:102390001088BCF80200CCE902230130C0F30E0023
:1023A000012838BF0120059BACF80200CCF81030A2
:1023B000069B40EA0E40CCF814300B69EFF3108214
:1023C00072B6D3E8CFCF0127BCF1000FF9D1C3E833
:1023D0004C7FBCF1000FF4D1BFF35F8F8B88635348
:1023E000A1F804E00B69C3E88F6F82F31088012223
:1023F000CB68097803F501538A405A60F0BD002389
:10240000C0E88F3F87F310884FF0FF30F0BD00BF6A
:1024100003464089B0EB214F37DD58690A1402EBBF
:10242000420210B500EBC2001C69EFF3108C72B6CB
:10243000D4E8CFEF0122BEF1000FF9D1C4E84E2F4E
:10244000BEF1000FF4D1BFF35F8F428889B292B220
:102450008A4207D000221B69C3E88F2F8CF31088B3
:10246000002010BD42F40042428001210022186980
:102470009971C0E88F2F8CF310881C78DA680846B1
:1024800002F50153A140596010BD0020704700BF04
:102490002DE9F04182B0064600F0CAF94FF47A7394
:1024A00004464FF0FF306FF00042E6FB0341A042CC
:1024B00072EB01033ABF044615460D46A61F45F1CF
:1024C000FF37B44275EB07033CBF0026374600F0E8
:1024D000AFF9301A67EB0101012871F1000106DA4A
:1024E0002046294602B0BDE8F04100F0ABB900F04B
:1024F0009FF9864267EB010100290ADB0021174B97
:102500003246009316483B460191FFF71DFF01300C
:10251000E6D04FF0000C134A1349536A9F4204D887
:10252000906AB042DCD29F42DAD10B68EFF31080A0
:1025300072B6D3E8CF8F5FF0010EB8F1000FF8D17B
:10254000C3E848EFB8F1000FF3D1BFF35F8F0B681A
:10255000C3E88FCF80F3108820BFDEE7111F001083
:10256000CC06002000000B40281100202DE9F0438C
:1025700006460D4683B0EFF30584E4B23CB12D4B23
:102580005A6AAA421CD2002003B0BDE8F0832A4F49
:10259000D7F80C9097F80080484600F041F908F110
:1025A000040859F828301B1A301A65EB01019842CB
:1025B00071F1000110DB20BF1E4B5A6AAA42E2D320
:1025C00014BF012400249B6AB34234BF204644F068
:1025D000010003B0BDE8F08300F02AF9864265EB04
:1025E0000101002914DB154B3846CDE90034324691
:1025F0002B46FFF7A9FE011E0ADD0E4B5A6AAA42BE
:1026000016D39B6AB34211D30B48FFF701FFB6E71D
:10261000084B5C6AAC42B6D3641B18BF01249B6AAA
:10262000B34234BF204644F00100ADE7AA42EBD1EB
:1026300020BFE9E700000B40CC060020111F00106E
:102640002DE9F0410446DDE9071552EA030072D096
:10265000002B16461F4673DB0698C5E90023286148
:10266000AC60696100F0E4F84FF0FF326FF00043B6
:10267000801947EB0107824273EB07013CBF1F46FD
:1026800010462369EFF3108272B6D3E8CF6F0121B1
:10269000002EFAD1C3E8461F002EF6D1BFF35F8F9C
:1026A000B4F90210666901EB410300294FEAC30C3B
:1026B000D4F8108006EBC30346DB36F80CE0A4F830
:1026C00002E04FF0000EC8E88FEF82F310885A88BE
:1026D000C3E902070132C2F30E02012A38BF012208
:1026E0001E485A805D61186142EA01422369EFF396
:1026F000108072B6D3E8CF8F0127B8F1000FF9D15F
:10270000C3E8487FB8F1000FF4D1BFF35F8FA3880F
:1027100026F80C30A1802369C3E88FEF80F310887E
:1027200001202178E36800FA01F103F501535960B3
:10273000EA60BDE8F0810126002732463B468BE780
:10274000564263EB430787E70020C8E88F0F82F308
:1027500010884FF0FF32EA60BDE8F081511F001091
:102760000246C06800B9704791680314B1F80AC006
:10277000BCEB204F3DDD30B54C6903EB430304EB6C
:10278000C30C0B69EFF3108E72B6D3E8CF5F012450
:10279000002DFAD1C3E8454F002DF6D1BFF35F8F6E
:1027A00083B2BCF8020080B2834209D000230969D9
:1027B000C1E88F3F8EF3108800230020D36030BD26
:1027C00043F40043ACF802304FF0010C00230869D9
:1027D00081F806C0C0E88F3F8EF31088CB68097877
:1027E00003F501530CFA01F1596000236046D360F0
:1027F00030BD00230020D360704700BF10B4054BEC
:10280000054C064AA04214BF1846581C5DF8044BFC
:10281000FFF73CBA9010002000800B402C5F0010A6
:102820000346416A0A46986A596A8A42FAD1704751
:10283000034B596A0A46986A596A9142FAD170471D
:1028400000000B40074A536A9942FCD8994207D1CD
:10285000044B02E05A6A914202D19A6A9042F9D836
:10286000704700BF00000B4000EB400C4FEA8C0C9F
:102870000CF1804C0CF5803CF0B51646DCF80420D9
:10288000051FB2F5803F38BF4FF48032EDB238BF3C
:10289000CCF80420012D2AD94FF40067254C0CF503
:1028A0004052176054F82020B2B9DCF80020012D06
:1028B00082EA461202F0E0020CF5805632602AD914
:1028C0004FF4006144F820304FF480330CF500528F
:1028D0001160CCF80430F0BD6769B7FBF2FE0EF171
:1028E000010E0EEB4E0EBEF1030EFCD2DDE7012908
:1028F000D2D103240CF540521460DCF80820D20732
:10290000FBD5DCF800200B4C82EA461202F0E00214
:102910000CF5805632600122DCF800504D4005F085
:102920000305356002FA01F1DCF808200A42FBD009
:10293000C6E700BF98100020014B53F820007047F5
:1029400098100020584B2DE9F0431C6C1746B4F545
:10295000803F38BF4FF4803283B038BF1A640322FF
:1029600080460E46514B504DDA636C6CE307FCD544
:10297000EB6B4F4A83F0200303F0E003D363EB6B70
:10298000494D83F0010303F00303D3636C6CA40788
:10299000FCD54FF400624FF48039464B464CDA6365
:1029A000464B4246636101213346C5F84090444896
:1029B000009700F057F94FF400616B6B07FB06F6C8
:1029C0004B4538BFC5F83490384B2269B8FBF6F652
:1029D00019633AB16369B3FBF2F3013303EB4303C9
:1029E000033BFDD23049324A0B6B03F0E003136323
:1029F0000B6B83F0020303F0030313638B6B580725
:102A0000FCD54FF400654FF480332A4A15632D4AF4
:102A10004B6322610A6C9A424FF0030238BF0B6489
:102A2000224B2149DA634B6CDA07FCD5CB6B204A89
:102A300003F0E003D363CB6B1B4983F0010303F086
:102A40000303D3634B6C9B07FCD54FF480334FF4E7
:102A50000065184A6661D5630B64CA6C9A4238BF38
:102A6000CB644FF40061114BA26999643AB1636978
:102A7000B3FBF2F3013303EB4303033BFDD24FF40B
:102A800000604FF48031084A094D936C83F0400395
:102A900003F0E003AB64074B084DA5619864D16473
:102AA00003B0BDE8F08300BF0000014000300140EA
:102AB000001001400020014098100020006CDC0252
:102AC00000000540001BB7002DE9F04F4FF4A0783F
:102AD000994685B0CDE902125F4CDFF884A15445D8
:102AE0000AD908F1FF38A4F53B54B8F10F0FA4F14F
:102AF0002004F4D1002069E0072304F53722019473
:102B000003FB03F402F5D872B2FBF4FE70454FF0FC
:102B1000010C4FF002074FF003064FF004054FF091
:102B200005013FD0B3F1010E00F094800EFB03F4D9
:102B3000B2FBF4FB58454CD019B301FB03F4B2FBD4
:102B4000F4FB58454FD0E5B105FB03F4B2FBF4FBB1
:102B5000584553D0AEB106FB03F4B2FBF4FB584525
:102B600057D077B107FB03F4B2FBF4FB58455BD0B9
:102B7000BCF1000F05D00CFB03F4B2FBF4FB834562
:102B80005DD0734603FB03F4B2FBF4FE704501F124
:102B9000FF3105F1FF3506F1FF3607F1FF370CF184
:102BA000FF3CBFD104FB1024002CBBD19E464A46FB
:102BB000DDF808B0DDF80C900120284901FB08F190
:102BC000CBF80010C9F80030C2F800E005B0BDE84D
:102BD000F08F04FB1024002CAED14A46DDF808B07B
:102BE000DDF80C90E8E704FB1024002CABD14A463A
:102BF0008E46DDF808B0DDF80C90DDE704FB10240C
:102C0000002CA7D14A46AE46DDF808B0DDF80C909E
:102C1000D2E704FB1024002CA3D14A46B646DDF8C7
:102C200008B0DDF80C90C7E704FB1024002C9FD1FE
:102C30004A46BE46DDF808B0DDF80C90BCE704FB60
:102C40001024002C9DD14A46E646DDF808B0DDF898
:102C50000C90B1E7019C44E750262F00001BB70001
:102C600050F80C0070B4039D04682D0345EA034539
:102C70001B4B002CB3FBF1F3B2FBF3F61FDB194A3D
:102C8000194B904214BF4FF480424FF40042174C4E
:102C90001A6003F580531A60A36832EA0303FBD17C
:102CA000212200F540530433016086601A600268F7
:102CB000002AFCDA0822C5601A6070BC70470368FD
:102CC00003F03F038B42DAD18368C3F30B03B342B3
:102CD000D5D1C36803F4EE23AB42D0D1EDE700BFFA
:102CE000001BB700008005400020024000000240A9
:102CF00030B44FF080441C4B1C60E0B11B4CA3F57A
:102D00004053DC611A4C40F0010044401C6259629F
:102D100098624FF080454FF0E061134B1548164C18
:102D20001D60846019604AB930BC4FF00042A3F5C1
:102D300080531A607047114BD861EAE74FF47A73F9
:102D400003FB02F2B2F1807F2ABF6FF07F4313468C
:102D50001A464FF080410A4C08482360094B4260F4
:102D600030BC1960704700BF00B00D40D3C007B041
:102D70002D3FF84F00A00140F3FFFF0100800D4000
:102D8000E010002000A00D40012300EB4000800077
:102D900000F1804000F5841041600360704700BF7F
:102DA0000023DB8A002242E800F2520201D4102103
:102DB00018470421184700BF034AD2F82838002BCF
:102DC000FBD0BFF35F8F704700000E400021044B23
:102DD000044ABFF35F8F43F8041B9342F9D1704755
:102DE0000C080E402C080E4010B44FF48D704FF4B8
:102DF0002A64064A064B07491460D060196053687C
:102E0000002BFCDA5DF8044B704700BF00800440E3
:102E100000A0044000B0FA00704700BF08B50148A8
:102E2000FEF700FF505F001038B5054C054DAC4271
:102E300004D254F8043B9847AC42FAD338BD00BFE3
:102E4000E85C0010285D001038B5054C054DAC421B
:102E500004D254F8043B9847AC42FAD338BD00BFC3
:102E6000145D0010285D001010B40748074C084B93
:102E7000084A094904601A608B6832EA0303FBD1EF
:102E80005DF8044B704700BF002002407F3BEFEF2E
:102E900000300240F6FFF30300000240044BDB6CFD
:102EA000B3F5004F03D14FF48022024BDA64704730
:102EB00000001150002011504FF0E022044BD2F8D6
:102EC000881D0B43C2F8883D10EE3004704700BFE8
:102ED000030330006FF06041044B054A19609368AA
:102EE000DB4333F06043FAD1704700BF003002404B
:102EF0000000024010B545F25320FFF751FFBDE836
:102F0000104003460420184710B545F25320FFF740
:102F100047FFBDE81040034601201847FEF736BFC3
:102F20001449154B70B55C1AA610442E324628BFC2
:102F30004422124D9200284602F0D0FCB4F5867F60
:102F400013D80F4AC6F1440012D02B19410803EBE5
:102F5000C101C3E9002208338B42FAD1C30704D56B
:102F600020F00100304445F82020064B9D6070BDE4
:102F70004320F8E7000000101001001000000020BE
:102F80001101001000ED00E0002370B52B4C82B061
:102F9000C4F88430FFF728FF0122294BDA63636C01
:102FA000012BFCD10321264A244B11639C6B012C7D
:102FB000FCD10226052521460523224A22480096F7
:102FC000FFF750FE21462B46204A21480095FFF787
:102FD00049FE0022042031461E4BFFF745FC2146E6
:102FE000284600221C4BFFF73FFC00220820114618
:102FF0001A4BFFF739FC002209201146174BFFF747
:1030000033FC002206201146134BFFF72DFC002253
:10301000114B07201146FFF727FC0420FFF78CFC1B
:1030200000240F4BA3FB0035AD0CE0B22946013460
:10303000FFF7AAFE062CF8D102B070BD00000140D7
:1030400000300140002F685900000540008C864781
:1030500000800540001BB70080D1F008006CDC0246
:1030600083DE1B4386B003B451FC0804CDE90201A2
:1030700051FC0904CDE9040151EC0A04CDE9060133
:1030800003BCF047BDE800504EEC00C4BDE8005062
:103090004EEC01C4BDE800504EEC02C400BD00007F
:1030A00000B5FFF7DFFF02E010FE30F4F8D441EC8A
:1030B000100443EC112400EE010410EE010480EE34
:1030C000200451EC1004704700B5FFF7CBFF02E07D
:1030D00010FE30F4F8D441EC100443EC112400EE5F
:1030E000010410EE210480EE200451EC30047047FE
:1030F00000B5FFF7B7FF02E010FE30F4F8D410B5CA
:1031000041EC100443EC112451EC040453EC05246D
:10311000A0FB024C5FF0000EE0FB03CEE1FB02CE11
:103120004CEC20440024E1FB03E444EC30E480EE6A
:10313000200451EC5004BDE81040704700B5FFF783
:1031400091FF02E010FE30F4F8D441EC100443EC9F
:10315000112451EC2104A0FB01126FEA820252FB00
:10316000100052FB12F252FB1000A0EBD07C53EC8B
:1031700004245CFB13F153EC1524A1FB022001FB9A
:10318000030053EC4424A2EB000050FB1CF24FEA76
:10319000111312EB017043EBE27140EA515020EA47
:1031A000915020F0070053EC7524A0FB023C53EC37
:1031B000752400FB03CC01FB02CC53EC0424ACEBE4
:1031C000824C40EA5C70A0F1010041EC400480EECA
:1031D000200451EC7004704700B5FFF743FF02E094
:1031E00010FE30F4F8D440EC700400EE010410EE50
:1031F000210480EE200451EC3004704700B5FFF745
:1032000031FF02E010FE30F4F8D440EC600400EE30
:10321000010410EE210480EE200451EC30047047CC
:1032200000B5FFF71FFF02E010FE30F4F8D441ECC8
:10323000800400EE010410EE010480EE400410EE64
:103240001304704700B5FFF70DFF02E010FE30F4E5
:10325000F8D441EC800400EE010410EE010480EE8D
:10326000400410EE3304704700B5FFF7FBFE02E0A8
:1032700010FE30F4F8D441EC100443EC112400EEBD
:10328000010410EE3004C0F30070704700B5FFF782
:10329000E9FE02E010FE30F4F8D443EC102441ECD7
:1032A000110400EE010410EE30F48CBF0120002068
:1032B000704700BF00B5FFF7D5FE02E010FE30F406
:1032C000F8D443EC102441EC110400EE010410EE9C
:1032D00030F42CBF01200020704700BF00B5FFF77D
:1032E000C1FE02E010FE30F4F8D441EC100443ECCF
:1032F000112400EE010410EE30F42CBF0120002058
:10330000704700BF00B5FFF7ADFE02E010FE30F4DD
:10331000F8D441EC100443EC112400EE010410EE4B
:1033200030F48CBF01200020704700BF38B5044640
:10333000094802F0D1FC204601F080FF054606480E
:1033400002F0C6FC2DB1054B2C449C4201D8284606
:1033500038BD0348FEF766FC480C0020000008203A
:103360005C5F001010B50446054802F0B5FC20462D
:1033700001F06CFFBDE81040014802F0A9BC00BF9D
:10338000480C00209A4238BF88547047704700BFED
:103390002DE9F04F83B09946DDE90DAB0F9B8846D0
:1033A00011469A07074616D1DA453AD20C460D4621
:1033B000ABEB0A060E4422464B4641462020013420
:1033C000B847B442F7D12946BAF1000F08D12046D8
:1033D00003B0BDE8F08F0C46BAF1000F10D00E46D6
:1033E00055460C9B2E449A440191721B4B46013D5D
:1033F00041461AF8010D3446B847002DF5D1019920
:103400000F9B9B07E3D5651AAB45E0D922464B4697
:10341000414620200135B8475D4504F10104F5D34C
:10342000D5E70C46BAF1000FD9D1D0E72DE9F04F1E
:103430000F9FDDF8248017F0020F0A9C9DF82CA046
:103440000E9DDDE90C9644D1F5BBB44241D207F0A4
:10345000010B04F1FF3C4FF0300EC44404E0013492
:10346000A6420CF801EF01D9202CF8D1BBF1000FD6
:1034700000F08880A5422CD904F1FF3C4FF0300EBB
:10348000C44404E00134AC420CF801EF21D0202CFC
:10349000F8D117F0100F0ED017F4806F54D1A64258
:1034A00063D0A54261D0B9F1100F50D0B9F1020F2D
:1034B00056D0202C29D12024CDE90B57CDE9098401
:1034C000BDE8F04FFFF764BF17F0010B34D1B442F1
:1034D000BFD317F0100F1ED017F4806FE3D1002C6C
:1034E000DDD1B9F1100F63D0B9F1020F77D03024DC
:1034F00088F800400124BAF1000F11D17E0748D5A9
:103500002B2608F804600134D6E7264601344FF034
:10351000300C08F806C0202CCDD0BAF1000FEDD049
:103520002D2608F804600134CDE90B57CDE9098454
:10353000BDE8F04FFFF72CBFBAF1000F30D0B44216
:1035400005F1FF3585D395E7B9F1100FB3D1BE066C
:103550003BD5202CAFD0582608F804600134A8E7EA
:10356000202CA8D02646013407E0661EB9D0B9F158
:10357000100F36D0B9F1020FC9D14FF0620C08F824
:1035800006C096E717F0100FC5D017F4806F86D0ED
:1035900089E73E0790D5202608F8046001348BE7C0
:1035A00017F00C0F00D0013DB442FFF452AF61E7B9
:1035B000BC0612D4782488F80040302488F80140F2
:1035C0000224BAF1000F99D0AAE7202C3FF473AF80
:1035D000782608F8046001346BE75824EBE762248E
:1035E000E9E717F0200FA4F1020C04D04FF0580EB9
:1035F00008F80CE08BE74FF0780E08F80CE086E74F
:1036000000B9704701F03CBB2DE9F04F97B09DED3C
:10361000207BDDE9225B0746884651EC170B249C92
:1036200099460C920B4602468DED047B0794FFF7FA
:103630001FFE002840F0F481DDE904014FF0FF3265
:103640006FF48013FFF726FE002840F01B81DDE9B0
:1036500004014FF0FF32AC4BFFF758FE002840F05A
:10366000EE80DDE90401A4A3D3E90023FFF74EFEB9
:10367000002840F0D380DDE90401A1A3D3E90023B1
:10368000FFF708FE002840F0C980DDE904010022B0
:103690000023FFF7FFFD002840F0E88023460D904F
:1036A00013F4806F08BF062530212B460EAAA5F122
:1036B000200605E0013BB34202F8011B00F09381B4
:1036C000092BF7D81E46ED1ADDE90401FFF7ACFD22
:1036D0008E4B044603EBC60393ED007B8DED087B18
:1036E000FFF77EFD02460B46DDE90401FFF7F0FC23
:1036F000DDE90823FFF700FD02460B46CDE90A236A
:10370000FFF7A4FD8246FFF77DFD02460B46DDE98B
:103710000A01FFF7DDFC02460B46CDE90A23002231
:103720007B4BFFF7F3FD002800F0FE800AF1010A51
:103730005046FFF767FD02460B46DDE90801FFF73B
:10374000BDFD10B14FF0000A0134002E00F0FD80E5
:10375000681E0EABDFF8CCC118440FE0ACFB0A21A9
:10376000C90801EB8102AAEB42023032BAF1090F1B
:1037700000F8012F40F21C818A461D46202D05F1DC
:10378000010306F1FF36E9D12025691E0EAB614821
:10379000194410E080FB0462C3EBA20303EB830235
:1037A000A4EB420404F1300201351C4601F8012F5C
:1037B000002B00F0EB80202D4FEAE473EAD1079B49
:1037C00003F00303012B18D1BBF1000F15D00D9BA3
:1037D000002B00F00A810BF1FF3BBBF1200F0CD94D
:1037E0006B1E0EA930220B4405E001355D4503F840
:1037F000012F80F0D180202DF7D1079B0EACCDE9B1
:1038000002B341464B4638460C9A01950094FFF7A7
:10381000BFFD8246504617B0BDE8F08F079B9DED77
:10382000047BCDE923B341464B4638460C9A8DEDD7
:10383000207B229517B0BDE8F04F00F045B9610735
:1038400023464CBF042303234146219338464B466D
:10385000079A48BF304CCDE922B258BF2F4C0C9A82
:10386000209417B0BDE8F04FFFF792BDDDE90423C7
:1038700000200021FFF72CFC0123CDE904010D936A
:1038800023460DE723469C0740F0AA80BBF1040FB6
:1038900040F2A6800C9B1D461C1F04EB0B0A2A4617
:1038A0004B46414620200135B847AA45F7D1554639
:1038B0001B4C261F14F8010D2A464B464146B847BB
:1038C000B44205F10105F5D1079B0AF1040A9807F6
:1038D000A0D50C9CAAEB04039B459BD952464B46B2
:1038E000414620200AF1010AB847AAEB04035B45D0
:1038F000F4D38FE7AFF300800000000065CDCD4129
:103900000000000065CDCDC1FFFFEF7FA08E00104D
:103910000000E03F67666666B05F0010B85F0010A9
:10392000C45F0010CDCCCCCC0022DDE90A01634B92
:10393000FFF7B0FC00287FF408AFBAF1000F6AD19E
:103940000AF1010A002E7FF403AF2046FFF748FC7E
:1039500002460B46DDE90401FFF7BAFB02460B46BF
:10396000CDE904230022554BFFF794FC00287FF497
:103970000CAFDDE904010022504BFFF7C7FC002823
:103980007FF403AF013424F00104FEE6079B03F04B
:103990000303012B00F08280202D3FF42EAF0D9BFE
:1039A0007BB32D220DEB050383F83820013524E786
:1039B000202B3FF4E9AE0EAA15441E44302204E049
:1039C000202B05F8012F3FF4DFAE9E4203F10103E7
:1039D000F6D12E220DEB060383F83820751CD4E6B1
:1039E000DDF830A063E720256EE6079B13F00C0F8F
:1039F00050D00BF1FF3BAB453FF6F2AE202D3FF42C
:103A0000FCAE079B5A0701D52B22CBE71B077FF59E
:103A1000F4AE2022C6E71AF0010F3FF496AE8FE70E
:103A2000A60734D1BBF1030F31D90C9B1D46DC1E18
:103A300004EB0B0A2A464B46414620200135B84785
:103A40005545F7D155461E4CE61E14F8010D2A4681
:103A50004B464146B847A64205F10105F5D1079B03
:103A60000AF1030A9D077FF5D5AE0C9CAAEB04036F
:103A70009B457FF6CFAE52464B46414620200AF189
:103A8000010AB847AAEB04039B45F4D8C2E6DDF867
:103A900030A0D7E7AB453FF6A3AEAEE6BBF1000FD3
:103AA0003FF47AAF0D9B002B9FD00BF1FF3B5D45A0
:103AB000FFF496AE202D7FF474AF9EE60000E03F49
:103AC000BF5F0010000000002DE9F04F9FB02A9E5C
:103AD000DDE92845074693460891099322462B467F
:103AE000204629460E96DDE92BA6FFF7C1FB0028EC
:103AF00040F0BE80204629464FF0FF32784BFFF75A
:103B000005FC002840F0B480204629464FF0FF32E3
:103B10006FF48013FFF7BEFB002840F0A980204619
:103B2000294600220023FFF7B5FB002840F0D5818D
:103B3000CDE90A45DDE90A239046994606F400627C
:103B400016F480630F92139340F0A18058EA0903A2
:103B500040F0CA80002A40F0E38106230E9316F05D
:103B60000202109240F0D4815346042B38BF042344
:103B70000C920422043B12920F9320462946002205
:103B80000023FFF787FB002840F0F3819DED0A7BBF
:103B90000F9B5A4603930E9B8DED007B029326F4F8
:103BA000006304933846099B0899FFF72DFD0246F0
:103BB00016F0200F099B08990CBF6520452002F1E3
:103BC0000108B8470C9A129B16AC5D1E82EAE2739C
:103BD000A3EBE273D10F002622469946DFF804C119
:103BE00001E0202E10D0CE46ACFB0930C00800EB1F
:103BF0008003A9EB43033033BEF1090F814606F180
:103C0000010602F8013BECD80523002006930A23A5
:103C100005950094099D089C4246CDE90330CDE905
:103C200001612B4621463846FFF700FC109A80467A
:103C3000D2B1A0EB0B06B24516D90BEB06022B4610
:103C4000214620200136B847B245F6D80BF1FF33A4
:103C50005344CBF10102A3EB08034244924538BF21
:103C6000002308F10108984440461FB0BDE8F08FDA
:103C70005A463846CDE92845CDE92BA60E9C099B2E
:103C800008992A941FB0BDE8F04FFFF7BDBC58EA71
:103C900009032BD1002A3FF462AF00230C930E9B43
:103CA0000C9A934200F3B9814FF000082046294650
:103CB00000220023FFF7EEFA002840F013819DED6B
:103CC0000A7B26F4006646F480668DED287B5A4612
:103CD0003846CDE92A8A099B08992C96D2E700BF7D
:103CE000FFFFEF7FCDCCCCCC06230E93C9F30A5057
:103CF000A0F2FF30FFF774FAC1A3D3E90023FFF766
:103D0000FBF9C1A3D3E90023FFF7CEF9C9F31309E7
:103D1000CDE90C0149F07F5140460022B24B41F4FD
:103D20004011FFF7D5F9A4A3D3E90023FFF7E4F985
:103D300002460B46DDE90C01FFF7B6F9FFF774FA0E
:103D40000C90FFF74DFA9EA3D3E9002380468946E5
:103D5000FFF7D2F90022A54BFFF7A6F9FFF764FAA7
:103D6000034649464046129397A3D3E90023FFF741
:103D7000C3F9804612988946FFF732FA94A3D3E933
:103D80000023FFF7B9F902460B4640464946FFF7C4
:103D90009FF902460B4680468946FFF7ADF9424639
:103DA0004B46CDE9100140464946FFF77DF9002218
:103DB000CDE91401DDE910018D4BFFF7C3F90022B5
:103DC0008C4BFFF771F902460B46DDE91001FFF756
:103DD000B9F90022884BFFF767F902460B46DDE987
:103DE0001001FFF7AFF942464B4680468946002056
:103DF0004FF08041FFF76CF902460B4640464946BA
:103E0000FFF752F902460B46DDE91401FFF79AF974
:103E100000227A4BFFF748F9129B002203F2FF3C85
:103E20004FEA0C53FFF768F980468946DDE90A013D
:103E300042464B46FFF72EFA50B10C9B4046013BE1
:103E400049460C9300226B4BFFF77CF9804689466C
:103E50000C9A43466332C62A06F002021092494683
:103E60000F9A2CD8002A5ED0042212920B433FF402
:103E700016AFDDE90A0158A3D3E90023FFF732FAB0
:103E800048B1DDE90A0156A3D3E90023FFF702FA9E
:103E900000287FF404AF0E9B002B50D0139A002A09
:103EA0007DD0013B0E93129B9A4505D9109B002BA8
:103EB00000F0AE800223109300230F9344E022BB56
:103EC000BAF1050F4FD906F00203002B49D10523A3
:103ED0001293AAF105030F933AE005F100430A9407
:103EE0000B9327E626F4006646F4806638462C9647
:103EF000DDE90A67344607F100455A46CDE92A8ACA
:103F0000CDE92845099B0899BCE605221292ADE748
:103F100000230222CDE90F3204220C9312922CE6E8
:103F20004FF00508C2E6BAF1040F1FD9109B002B11
:103F300078D104231293AAF104030F9304E0129B97
:103F40009A4531D80E9B0F930C9B002B3FF415AE76
:103F5000DDE90A0142464B46FFF7F4F8CDE90A01D4
:103F60000BE60223109305231293F1E70423129327
:103F7000EAE7DDE90A45A0460F9B05F100490393F6
:103F80000E9B5A46029326F4006304933846CDE90B
:103F90000089099B0899FFF737FB024608E6129B48
:103FA0009A4544D80F92CFE7109B8BB30E9B0F938B
:103FB00002231093C8E700BF61436F63A787D23F16
:103FC00071A379094F930A401655B5BBB16B0240F6
:103FD000EF39FAFE422EE63F2D431CEBE2361A3F44
:103FE0000000000080842E410000F83F0000E03F08
:103FF00000002C4000002440000018400000F03F6A
:10400000FB799F501344D33FB3C8608B288AC63FC7
:10401000129BAAEB03030F9396E7A3EB020808F1A8
:10402000FF3843E604231293022310938CE7109B7E
:10403000002BEDD002230F92109385E72DE9F04F6E
:104040009BB0249C954D0A94954CB1F1000A18BF81
:10405000834625601878934C914608BFA346099380
:10406000002800F093824FF000080AE042464B46D9
:10407000514608F10108D847099B1878002800F03C
:10408000CE80099B252803F101030993EED11C463C
:104090000023224612F8010BA0F1200110290AD8B2
:1040A000DFE801F04009093C090909090909093853
:1040B000093409093000A0F130010929099440F2BE
:1040C0008A802A2800F0F08000252E2800F09680B3
:1040D0000026A0F1680112292DD8DFE811F049016E
:1040E0002C0043012C0038012C002C002C002C004B
:1040F0002C002C002C0027002C002C002C002C0065
:104100002C002700144643F00103C2E7144643F095
:104110000203BEE7144643F00403BAE7144643F033
:104120001003B6E7144643F00803B2E7099948784C
:1041300043F480730132672809927ED8242840F224
:10414000C180A0F12502422A00F2BC80DFE812F013
:104150005001BA00BA00BA00BA00BA00BA00BA00F8
:10416000BA00BA00BA00BA00BA00BA00BA00BA007F
:10417000BA00BA00BA00BA00BA00BA00BA00BA006F
:10418000BA00BA00BA00BA00BA00BA00BA00BA005F
:10419000190137011901BA00BA00BA00BA00BA0011
:1041A000BA00BA00BA00BA00BA00BA00BA00BA003F
:1041B000BA00BA00BA00BC01BA00BA00BA00BA002C
:1041C000BA00BA00BA00BA00BA00BC015801BC017A
:1041D000190137011901002500E0013205EB8505C1
:1041E00000EB45051078303DA0F130010929F4D9E4
:1041F0002E28099202F101027FF46AAF099943F473
:10420000806348781146A0F13006092E40F22181E2
:104210002A2800F02F8109920026013259E74446EE
:10422000C14501D809F1FF384B46424651460020AE
:10423000D84720461BB0BDE8F08FA0F16902D2B28A
:104240000F2A3FD8012149F241079140394040F0FF
:10425000F3800A2A3DD0072A34D10A9D55F8042B51
:10426000002A00F0138143F0210012AB1F460B938C
:1042700003E0202900F014811A4602F00F042346BF
:10428000092C94BF303337330F2A07F8013B01F173
:1042900001014FEA1213ECD802E100BF3D400010CB
:1042A000DC1000208D3300100A99099851F8045B46
:1042B0004078002DCDE90921BCBF43F002036D42D7
:1042C000013202E742464B46514608F10108D84701
:1042D000D2E60A99002E51F8047B18BF324638788E
:1042E00008BF4FF0FF32002800F07B83BC18A446C3
:1042F0003A4604E012F8014F002C00F03F8194454B
:10430000F8D16446E41B5A0540F12281B44228BF2B
:10431000344613F0020300F088820223CDE90A51EB
:1043200042461D46464408E04B465146D84717F8DA
:10433000010F08F1010810B142464645F4D12B4661
:104340000B990A9D002B40F041810A9194E609994E
:1043500048786C287FF4ECAE0A46887843F44073C2
:104360000332E8E6099943F4007348780132E2E643
:1043700009994878682800F0038143F080030132EE
:10438000D9E6672800F0D980472800F0DC8045286E
:1043900000F0DB80CDE903530A9B0296073323F03C
:1043A00007031C464246F4E802674B46514658460E
:1043B000CDE900670A94FFF787FB80465CE6462854
:1043C00008BF43F02003CDE903530A9B029607334D
:1043D00023F007031C464246F4E802674B46514669
:1043E0005846CDE900670A94FFF70EF9804643E688
:1043F00042464B465146252008F10108D8473BE686
:104400000A9A990702F1040408F1010640F1C680F6
:1044100010784B4642465146D847012D88BFA844E4
:1044200040F2BD8132464B46514620200136D847E6
:104430004645F7D10A941FE66F2800F0818040F2CC
:104440004882782800F090810A2723F01003BC46A8
:1044500041E0002606EB860600EB4600A0F13006A0
:1044600011F8010FA0F13002092AF3D90A46099187
:1044700001322EE6DDE9092151F8046B9078023211
:1044800009920A91013226EAE67622E623F010002C
:1044900013F4806240F021003FF4E7AE12AB0B93BF
:1044A0000B9B06900093082310200593002342469F
:1044B000CDE9023001914B46514658460496FEF72D
:1044C000B5FF0A958046D7E5582862D0622840F0AB
:1044D0008F800227BC4613F4806000F0DD8023F05B
:1044E0000D0313F4007240F081810A990F1D13F43B
:1044F000807140F037825C060A9A40F13B81127865
:10450000002A40F04E8123F01003002800F049817A
:10451000114612AA0B92CDE90553CDE903C60191CC
:104520000B9B4246009300235146029358464B464C
:10453000FEF77CFF0A9780469EE543F4006329E777
:104540000827BC46C7E743F4006343F0200321E794
:1045500013F0020300F08E8102230A951E460D46D9
:1045600042464B465146D84717F8010F08F101085B
:104570000028F5D1294633460A9DE3E6D41BC2E65E
:104580000A46887843F0C0030332D4E504468046E7
:1045900046E6102743F02003BC469CE7012D40F27D
:1045A000F880464608F1FF372F4432464B465146C5
:1045B00020200136D847BE42F7D10A9B32461878F0
:1045C00051464B46D847A8440A9455E54646A5426D
:1045D0007FF6BBAEA844A8EB04080C4632464B4617
:1045E000514620200136D8474645F7D12146ACE652
:1045F00013F4806200F0BB804FF4806223F0110C52
:104600001CF400770A9B4AD11CF4807003F1040467
:1046100040F034811CF0400F40F0A3801CF0800F6C
:1046200000F0D381B3F9001081EAE177A7EBE177DD
:10463000BFB2CB0F002900F056813A4612A90F46AF
:10464000DFF8D8E30B910A930C9501E020280FD0F6
:104650001546AEFB0213DB0803EB8301A2EB41011D
:104660003031092D1A4600F1010007F8011BEDD881
:104670000A9B0C9DCDE9055CCDE9010304960B9BDB
:10468000424600930A235146039358464B46FEF791
:10469000CDFE0A948046EFE423F00C0321E70733B4
:1046A00023F00703194608465B6850F8081BDF0F24
:1046B0000A9051EA030062D1002A40F09F8113461C
:1046C000114612AACDE90C7500201546CDE90E68F9
:1046D000DFF848E30B9201E020282DD05A1842F170
:1046E0000002AEFB027828F0030707EB9807D21B05
:1046F0001E469B1A61F100070C464FF0CC3101FBBE
:1047000003F10EFB0711A3FB0E731944052307F0F9
:104710000108A8FB03389B180A2E03F130034FEA67
:10472000570774F1000405F8013B00F1010047EA66
:10473000C1734FEA5101CFD2DDE90C75DDE90E6896
:104740000B9B424600930A23CDE9055CCDE90107A6
:10475000049603934B4651465846FEF767FE804643
:104760008AE419780F4664E71027BC46B3E623F0C5
:10477000100C45E71C064CBF12881268C0E60A46BA
:10478000191E01DB13469CE75242134661EB4101BF
:1047900097E713465146187842464B46D847B046ED
:1047A00048E613F0200F14BF4120612012ACA6464A
:1047B0000B940A93A0F10A040C9502E0202912D070
:1047C0002A46B2FBFCF50CFB1520C3B2092803F105
:1047D00030008ABF1B19C3B2DBB262450EF8013B41
:1047E00001F10101EAD20A9B0C9D94E60A9A073274
:1047F00022F00702516852F8084B8E460A9254EA9A
:10480000010276D123F01003002872D00022114655
:1048100012AA0B92CDE905530B9B4246009300234D
:10482000CDE903C60191029394E7A54298BF0134F4
:104830007FF674AD4FF48063CDE90A7505EB08028D
:104840001F460D46141B42464B465146202008F198
:104850000108D847A045F6D13B460A9F294638783B
:104860000B9D6C1C00283FF470AD002B3FF475AE1F
:10487000002353E5A542DFD801346EE61968CB0F5B
:10488000002900F0A88081EAE172A2EBE17212A98E
:104890000846DFF888E10B910A930C9501E0202F80
:1048A0000FD01546AEFB0213DB0803EB8301A2EB2E
:1048B00041013031092D1A4607F1010700F8011BAB
:1048C000EDD80A9B0C9DCDE9055CCDE901730496FA
:1048D000D5E6692823F0100C40F08C8013F4806238
:1048E0003FF48EAE88E6002A3FF4A8AE12AA0B92DF
:1048F000C0E613F0200F14BF41226122002012A94C
:104900000A3ACDE90E68CDE90C35CDF844B006463B
:104910008846754693460B91CDF840C003E0202EA3
:1049200017D004460D4629463A460023204601F09A
:10493000CBF9D2B2092A02F1300388BF02EB0B0394
:10494000BC42DBB275F1000508F8013B06F1010637
:10495000E5D23146DDE90C35DDE910CBDDF83C80F0
:104960000E9E57E70A99096851B923F0100338B130
:1049700012A90B91CDE90553CDE903C60192CFE50C
:1049800013F0200F14BF4120612012ACA6460B94F7
:104990000A93A0F10A040C9502E0202A12D02946BD
:1049A000B1FBFCF50CFB1510C3B2092803F1300074
:1049B0008ABF1B19C3B2DBB261450EF8013B02F19D
:1049C0000102EAD20A9B0C9DD4E7196881EAE177DB
:1049D000A7EBE1772DE6002A3FF459AF12AA0B921C
:1049E00071E713F480640DD013F0020412D0044672
:1049F0004646ECE50A276346BC466CE512AB002050
:104A00000B939DE613F002037FF4E0AD002D7FF4DD
:104A100013AF9AE4002D7FF40DAF96E4CDCCCCCC4F
:104A20000EB410B585B007AC54F8043B01464FF006
:104A3000FF32009404480394FFF700FB05B0BDE883
:104A4000104003B0704700BF8533001010B5094B0C
:104A500084B01C684CB1034600914FF0FF3203A9AB
:104A60000548A047012004B010BD00F04BF92046D6
:104A700004B010BDDC1000200136001000BEFDE7C0
:104A8000074A0346106838B1064903448B428CBF7D
:104A90004FF0FF3013607047034908461160F3E799
:104AA000D4100020000008208C69022008B5FFF710
:104AB000E5FF00BF38B5064C064DFEF7B5F9AC4230
:104AC00004D254F8043B9847AC42FAD338BD00BF37
:104AD000285D00102C5D0010036808461146184739
:104AE0002DE9F0411546427D07468846002A46D00A
:104AF000002D1DDD0B780A2B23D0012D4FF0000C6B
:104B000018D04646012416F8012F21460A2A04F13E
:104B1000010422D0A542F6D165450BDC08EB050364
:104B200013F8013CA3F10D03B3FA83F35B093B7562
:104B3000BDE8F0813B68A5EB0C0108EB0C00984741
:104B4000ECE7037D002BD8D1036802210F4898477A
:104B5000012DE3D04FF0010CD3E716F8013C0D2BEB
:104B6000D8D08C4508EB0C00A1EB0C0101DA3B68B6
:104B70009847022105483B689847A446CAE729465A
:104B800040463B68BDE8F041184700BFF08E00107A
:104B90002DE9F04782B00D4691461C460646FDF7CA
:104BA00047FE4FF0FF3C6FF000472E4A821841F15C
:104BB0000003944577EB03013CBF62463B462A481D
:104BC00001F08EF86B1C804640D00CB3274F284B69
:104BD0001C68B4B1B9F1000F1CD1DFF89C9001E062
:104BE000246974B12368002BFAD0D9F800300BB1D6
:104BF0009C42F5D120462A463146B8472469002C0C
:104C0000F0D1B8F1000F26D1284602B0BDE8F087F8
:104C1000184FDCE74FF00A0ADFF85C9002E02469E5
:104C2000002CEED02368002BF9D0D9F800300BB15E
:104C3000A342F4D12A4631462046B84701222046F5
:104C40000DF107018DF807A0B847E8E7304600F0FE
:104C5000BBFE0546B9E7044801F03AF8284602B021
:104C6000BDE8F08740420F00500C0020E14A0010E0
:104C7000C4100020D94A0010CC100020002070473A
:104C8000F0B583B006468DF80700FDF7D1FD4FF073
:104C9000FF356FF00044174A821841F10003954236
:104CA00074EB03013CBF23462A46134801F018F871
:104CB000124B07461C689CB1114D01E024697CB180
:104CC0002368002BFAD02B680BB19C42F6D120460A
:104CD00001220DF10701FFF703FF2469002CEFD13A
:104CE00017B9304603B0F0BD034800F0F1FF30467D
:104CF00003B0F0BD40420F00500C0020C410002053
:104D0000CC10002038B5044600F05EFE01230546B5
:104D10001A4620462946FFF73BFF084B1C682CB17A
:104D200063682BB198472469002CF9D1284638BD17
:104D30002469002CF4D1284638BD00BFC4100020DF
:104D400000F12F4000F56000030D022B0DD0012B68
:104D500005D0094A094801EB8301FCF797BF084ACF
:104D6000064801EB8301FCF791BF064A034801EBBB
:104D70008301FCF78BBF00BFC85F001094100020B8
:104D800008600010E45F00102DE9F0470F4605466B
:104D9000FCF760FF012297F804A097F905C005F120
:104DA0002F4EDFF8D4800EF5600E02FA0AF24FEAB9
:104DB0001E5EBCF1000F58F82E6002F1FF32CAF1FE
:104DC000200435DBA44503DC02FA0CF3334206D0A1
:104DD0004FF0FF34FCF750FF2046BDE8F087D5F8D0
:104DE0006831F979002B41D14B0731D4644602FA7E
:104DF0000CF2164233D13968BAF1000F10D0674671
:104E000001EB4A0A31F8023B07F11209B3F5005FE2
:104E100038BF6344514507F1010745F82930F1D106
:104E2000324348F82E20FCF727FF2046BDE8F087E4
:104E3000002C02DA13E0013C11D302FA04F33342EE
:104E4000A446F8D1D5F86811FB7991B95B07CED5A6
:104E50006FF00A04FCF710FF2046BDE8F0876FF002
:104E60000804FCF709FF2046BDE8F087C907BDD557
:104E7000EEE7D907BBD5EBE7800F002010B504465D
:104E8000FCF7E8FE002304F12F42084902F5600216
:104E9000120D41F8223003F1120244F8223001339E
:104EA000202BF8D1BDE81040FCF7E6BE800F0020B3
:104EB0002DE9F041D0F868419DF81860121B1F2AB7
:104EC00038D84EF29F044EF280054FF4003801EBC3
:104ED000410C002E18BF254600EBCC0404F54354CA
:104EE00000EBCC0C052BDCF8DC704FEA410EDCF853
:104EF000CC60C4F80C800CD95401053B44F0A0549C
:104F00000532052BCCF8DC4002F01F02CCF8D8505B
:104F1000F2D8714400EBC1010020520142EA8363E0
:104F2000C1F8DC30C1F8D850C1F8DC70C1F8CC60F1
:104F3000BDE8F0816FF00400FAE700BFF0B501258D
:104F400004688D4024EA05040460B3B3D3E9015634
:104F50001F68DC6801EB410300EBC303C3F8C870B2
:104F60004FEA410CC3F8D060C3F8CC50C3F8DC4022
:104F70000CEB01034FF0013500EBC30C4FF0004682
:104F800000EBC30E01230EF5865E0C1D01F1080730
:104F90008D40CEF8106003FA04F4CEF8106002F0F1
:104FA0001F028560BB4000F5005004600EF1100E3A
:104FB00003600020CCF8D820F0BD4FF480374FF4C8
:104FC00040264FF4F83501EB410400EBC404C4F86B
:104FD000C8704FEA410CC4F8D060C4F8CC50C4F893
:104FE000DC30C5E710B5054C82B001460F23002226
:104FF00000940348FCF776FE02B010BD2C60001050
:105000008069022003BD00BF10B50446FDF71CFFF8
:105010002346BDE8104018474FF05042136D9B07E0
:10502000FCD5506540BF70474FF05042136DD90713
:1050300003D420BF136DDB07FBD54FF05043986DB1
:10504000704700BFF0B5054687B0192017460E46D9
:10505000FCF7DEFE002104461920FCF7C3FE002108
:10506000CDE9046503970026002701224FF0504345
:105070008C46CDE900670292A9B11A6D9507FCD55F
:10508000596540BF1A6DD00703D420BF1A6DD207EF
:10509000FBD59A6D8A420BD04FF0000C0DEB8C02C1
:1050A0001168E9E79A6D1A6DD607FBD440BFE4E7B3
:1050B0000CF1010CBCF1060FF0D12146192007B00C
:1050C000BDE8F040FCF78EBE0C4B0D4A93420ED368
:1050D0009C4603F2F4710B4A9268CCF8F4070A4834
:1050E000CCF8F837CCF8FC070848FFF7ABBF4FF017
:1050F000FF3340F2F3719C46EDE700BF0008082043
:105100000000082000ED00E00950001005500010DC
:1051100070B5002501260468002BE56684466160B1
:1051200028469DF810E0E66616DD5D1E616F1029C9
:10513000FCD000B30021A84204BF8EF0010641EA72
:10514000462141F480712161D4F88010616B4906D9
:1051500005D54FF0FF30636D8CF804E070BDA16F92
:105160000029F1D021690130834202F8011BF3D0FC
:10517000DCF80040DAE79CF804108902DBE700BFA6
:105180002DE9F04100270124944602680546D766C0
:105190005160D4661C1E38469DF818601EDD2979C2
:1051A00086F0010789027F0204F1FF3E70450CBFC3
:1051B000B8464FF000081CF8013B0B4343EA0803D4
:1051C0001361536BD906FCD5D2F8801049B97045EC
:1051D0001CD0013084424FF00001E7D12E71BDE8B0
:1051E000F0814FF00108536D536B9B05FCD5136E96
:1051F000B8F1000FEDD069B1CB070BD411F0080F57
:1052000008BF4FF0FF302E71BDE8F081002EE0D1D5
:10521000B046E9E74FF0FF30E0E700BF10B49DF87B
:10522000044001945DF8044BFFF7AABF10B49DF849
:10523000044001945DF8044BFFF76ABF024B01463E
:10524000186800F00BB800BF000B0020024B0146AD
:10525000186800F043BC00BF000B002001F10B03F5
:10526000162B2DE9F04F074683B023D8102900F202
:10527000AF8000F0AFFA102518230220BA4E334455
:105280005C68A3F10802944200F0568163683846D6
:1052900023F00303D4E902122344CA6091605A68E0
:1052A000083442F001025A6000F09AFA204603B036
:1052B000BDE8F08F002B23F00705C0F28980A942DA
:1052C00000F2868000F086FAB5F5FC7FC0F07B82A4
:1052D0006B0A00F08480042B00F26281AB0903F1B9
:1052E000390003F1380EC3009F4E3344A3F1080C7C
:1052F0005C68A44507D10DE0002AE16880F21681C0
:105300008C450C4606D0636823F003035A1B0F2A12
:10531000F2DD7046DFF868823469444500F0F280BF
:10532000636823F0030CACEB05030F2B00F37481CF
:10533000002BC6E9048880F26381BCF5007FD6F8B3
:1053400004E080F0FF804FEADC0301224FEA5C1C9E
:10535000013302FA0CF256F833104EEA020E06EB55
:10536000C302083AC6F804E0C4E9021246F8334022
:10537000CC6083104FF0010C0CFA03FCF44534D8D8
:105380001CEA0E0F07D120F003004FEA4C0C04304A
:105390001CEA0E0FF9D006EBC00A8146D646DEF8AD
:1053A0000C300BE05A681C46DB6822F00302511BEC
:1053B0000F2900F30181002980F215819E45F1D16A
:1053C00009F101090EF1080E19F0030FE7D158E1B8
:1053D0000C233B600024204603B0BDE8F08F4FF45F
:1053E000007340204FF03F0E7EE7B468636823F0FF
:1053F0000309A945A9EB050302D30F2B00F3858010
:105400005A4B08201B6803F1100804EB09030093B2
:1054100000F056FA564AA84483461368013305D073
:1054200008F1FF384342804403EA08084146384601
:1054300000F02AFAB0F1FF3F82464D4A00F00781A2
:1054400004EB0903834200F200814A4B0BF1FF3C5D
:1054500018684044186000F064811168013100F060
:105460006C8104EB0902AAEB020202441A601AF0F2
:105470000702CDE9002300F02781C2F10802384677
:1054800092445A44D04408EA0C01521A02EA0C0B26
:10549000594600F0F9F9421C019B00F06A81A0EB2B
:1054A0000A0000EB0B08186848F00102B442C6F885
:1054B00008A05844CAF80420186017D0B9F10F0F9B
:1054C00040F23E816168A9F10C024FF0050C22F018
:1054D000070201F0010111430F2A616004EB020190
:1054E000C1E901CC00F24D81DAF80420224B544688
:1054F0001968814238BF1860204B1968814238BF53
:105500001860A6E0D6F804E033E7621945F001051B
:1055100043F00103083444F8045C3846B260536039
:1055200000F05EF9204603B0BDE8F08FA268234486
:105530003846D1608A60B2E6DC68A3427FF4A6AE4A
:105540000230E7E6BCF5206F4FEA5C2276D3142ADE
:1055500000F2CD8002F15C035B32DB00F118F358FE
:105560000839994211D1A5E0F8060020240E002048
:10557000EC060020F40D00201C0E0020200E002060
:10558000000700209B68994204D05A6822F0030269
:105590006245F7D8D968C4E902318C60DC60E8E67E
:1055A000142B63D9542B00F2AB802B0B03F16F004B
:1055B00003F16E0EC30097E6D4F808C038466719A9
:1055C00045F001056560CCF80C30C3F808C041F027
:1055D0000103C6E90477C7E902887B60A15008345B
:1055E00000F0FEF8F7E622443846516841F0010128
:1055F000516054F8082FD3609A6000F0F1F8EAE6A1
:10560000A44438460834DCF8043043F00103CCF8F5
:10561000043000F0E5F8DEE6621943F0010145F0E0
:10562000010538466560C6E90422C2E90288516076
:1056300044F80C30083400F0D3F8CCE64FEA9C1262
:1056400002F139033832DB0088E7B44262D0B46833
:10565000626822F00308A845A8EB050302D30F2BCC
:105660003FF753AF384600F0BBF8B3E603F15C00F8
:1056700003F15B0EC30037E65AF80839534540F092
:10568000A08010F0030F00F1FF30F5D1736823EA1A
:105690000C0373604FEA4C0C0CF1FF329A4204D3B6
:1056A000A3E64FEA4C0C09F104091CEA030FF8D0F9
:1056B000484670E692104FF0010C0CFA02F24EEAE6
:1056C000020EC6F804E066E70AEB0802384602EA72
:1056D0000C02ABEB020B0BEA0C0B594600F0D4F8B2
:1056E000431C019B7FF4DBAEDDF800B0DBE6542AFF
:1056F0002AD84FEA1C3202F16F036E32DB002DE72D
:10570000B3F5AA7F2AD8EB0B03F1780003F1770EEB
:10571000C300E9E52E4B0BF1FF3C186840441860CC
:105720009BE61AEA0C0F7FF498AEC844D6F808A09E
:1057300048F00102CAF80420D8E6C2F800A096E6B4
:105740000123CAF804308DE7B2F5AA7F24D84FEAC6
:10575000DC3202F178037732DB00FFE640F254528C
:10576000934224D8AB0C03F17D0003F17C0EC300FF
:10577000BAE5009A4FF0000B083A9044A8EB0A08EB
:1057800091E6384604F10801009300F0A7F9009B68
:10579000D6F808A01868A7E640F254539A420CD8ED
:1057A0004FEA9C4202F17D037C32DB00D6E64FF4E7
:1057B0007E737F204FF07E0E96E54FF47E737E223F
:1057C000CCE6736866E7E80805F1080356E500BF14
:1057D000F40D0020014800F06FB800BFF00D00206C
:1057E000014800F06BB800BFF00D0020830730B512
:1057F00046D08418844604E003F8011B9D0704D0BA
:105800009C46A4456346F7D130BD013A0244A2EB61
:105810000C02032A29D9CCB20F2A04EB042404EB8E
:1058200004442FD9A2F1100C03F110052CF00F0C39
:10583000AC44C3E90044C3E9024410336345F8D1E2
:1058400012F00C0F02F00F0E18D02EF0030CAEF178
:1058500004051A469C4442F8044B6245FBD125F0EE
:10586000030404330EF003022344002ACCD0C9B24F
:105870001A4403F8011B9342FBD130BD7246F4E792
:105880000346C6E79646E0E738B50022064D0446D3
:1058900008462A60FFF7F4F8431C00D038BD2B6897
:1058A000002BFBD0236038BDC8100020014B1868C6
:1058B000704700BF000B0020704700BF704700BF5B
:1058C000082802D14FF48050704708B5FFF7EEFF6B
:1058D000162203464FF0FF301A6008BD844641EAA5
:1058E000000313F0030349D1403A23D30B6803604C
:1058F0004B6843608B688360CB68C3600B6903614E
:105900004B6943618B698361CB69C3610B6A036235
:105910004B6A43628B6A8362CB6AC3620B6B03631D
:105920004B6B43638B6B8363CB6BC3634030403102
:10593000403ADBD230320BD30B6803604B684360D4
:105940008B688360CB68C36010301031103AF3D29B
:105950000C3205D351F8043B40F8043B043AF9D229
:10596000043208D0D2071CBF11F8013B00F8013BFC
:1059700001D30B8803806046704700BF082A13D309
:105980008B07B1D010F00303AED0C3F10403D21AD9
:10599000DB071CBF11F8013B00F8013BA4D331F831
:1059A000023B20F8023B9FE7043AD9D3013A11F8B1
:1059B000013B00F8013BF9D20B7803704B78437040
:1059C0008B7883706046704720F0030110F003006D
:1059D000C0F1000051F8043B00F1040C4FEACC0C7C
:1059E0006FF000021CBF22FA0CF213434FF0010CBF
:1059F0004CEA0C2C4CEA0C4CA3EB0C0222EA0302FE
:105A000012EACC1204BF51F8043B0430F4D0C2F1C6
:105A1000000102EA0102B2FA82F2C2F11F0200EBB7
:105A2000D20070472DE9F8430646DFF8AC80082025
:105A30008946FFF745FF05463046FFF7CBFED8F80D
:105A400008305F6827F00307A7F11104A4EB0904ED
:105A50002C44B4FBF5F4013C05FB04F4A54208DC3E
:105A600000213046FFF710FFD8F808303B44984239
:105A700005D03046FFF7B4FE0020BDE8F883614250
:105A80003046FFF701FF01300FD03F1B104AD8F816
:105A90000830304647F001075F6013681B1B136036
:105AA000FFF79EFE0120BDE8F88300213046FFF796
:105AB000EBFED8F80820831A0F2BDADD43F0010340
:105AC00003495360034B1B68C01A0860D1E700BF4D
:105AD000F40D0020EC060020F806002000295AD022
