:020000041000EA
:10000000002008205D0100101B0100101D010010E0
:100010001101001011010010110100101101001058
:100020001901001019010010190100101F01001022
:10003000110100101901001021010010230100100E
:100040001101001011010010110100101101001028
:100050001101001011010010110100101101001018
:100060001101001011010010110100101101001008
:1000700011010010110100101101001011010010F8
:1000800011010010110100101101001011010010E8
:1000900011010010110100101101001011010010D8
:1000A00011010010110100101101001011010010C8
:1000B00011010010110100101101001011010010B8
:1000C00011010010110100101101001011010010A8
:1000D0001101001011010010110100101101001098
:1000E0001101001011010010110100101101001088
:1000F0001101001011010010110100101101001078
:100100001101001011010010110100101101001067
:10011000EFF30580103800BE00BE00BE00BE00BE7A
:1001200000BE00BEF2EB887198A70010BCA70010BB
:10013000A001001090A31AE7D3DEFFFF42012110B7
:10014000FF01000064C70000793512AB4FF00000DA
:100150001E49086006C881F3088810474FF05040D8
:10016000006810B14FF00000F2E70DA40ECC00299A
:1001700002D000F012F8F9E71549164A002000E015
:1001800001C19142FCD11449884714498847144958
:10019000884700BEFDE701C901C29A42FBD3704700
:1001A000BCA7001010010020F02100209CC8001006
:1001B00000000820000008209CC800100010082043
:1001C00000100820000000007047000008ED00E06B
:1001D000F0210020008802201D4300102D03001094
:1001E00015430010F8B500BF064B0749C91A89101E
:1001F00048BF0131491003D0044B0BB101481847E7
:10020000704700BFF0210020F02100200000000016
:1002100008B5054B1BB105490548AFF30080BDE8A3
:100220000840FFF7E1BF00BF00000000582F00208A
:10023000007C001008B5034D034C2968206807F0C6
:100240008FFCFAE7C42A0020AC1B002010B5084C34
:100250002068012806D0002000F002FE01230120C2
:10026000236010BD00F0FCFD00230120236010BDC1
:10027000A01B0020002110B5264C084623681B69EE
:100280009847236800210420DB68984723682248A8
:10029000DB6A9847236800210620DB6898472368BB
:1002A0001E48DB6A9847236803200021DB689847D3
:1002B0001B4B1A782368012A94BF1A481A48DB6A34
:1002C0009847236800210220DB68984703234FF4F6
:1002D00020723021002001F0CFF903234FF4207267
:1002E0003121002001F0C8F903234FF4207232219C
:1002F000002001F0C1F90323332100204FF42072C4
:1003000001F0BAF923680421BDE8104000201B6900
:10031000184700BFCC2F0020007C00102C7C001060
:10032000FF870220447C0010847C001000B589B057
:1003300004F0ECF8224807AB06AA05A903F094FCE8
:1003400018B91F491F4802F0ADFBDDE906120598F8
:1003500003F0C8FB00F098F8022001F09FF8022299
:10036000194B1A4C1A4D1A702060FFF783FF28466C
:1003700003F0D8FA23689B689847044603F0C0F856
:1003800000214FF47A72134BCDE90115009323B28B
:1003900083FB022303F036FA0F4806F075FE0121B5
:1003A0000E4A0F4B10681B6808305A688140114292
:1003B00005D153F820205A681142FAD0FEE7FDE734
:1003C000F0490200FC7C0010FF870220CC2F0020A7
:1003D000782300204D02001035020010C42A0020AE
:1003E000AC1B0020244870B40468A10101F1A043B3
:1003F0001A69520117D44FF4113C204B204803F5E1
:10040000A05200EA44309D0712D012F8011BBCF143
:10041000010C03F8011BF6D14FF4A05270BC00216F
:10042000184807F02DB91A695601FCD40468E2E7B0
:100430005FEA9C060CF0030511D040F4FC00A1011A
:1004400001F1A04140F059000A604B608E60C86025
:1004500008694001FCD42CF0030C63446244002D75
:10046000DAD01178012D1970D6D05178022D59703B
:100470001CBF92789A70CFE7502F0020DC2F00200D
:10048000FDFF7FFCDC730220F0B5474989B0474887
:1004900006F03AFC0024464B0646214643481C60C1
:1004A00006F00EFC4FF480304FF4F8314FF4402347
:1004B0004FF4000E6D46CDE90001039402930DF157
:1004C000100C06F11703F70147EA03379DE80F0008
:1004D0008CE80F0005979CE80F008DE80F00CDF821
:1004E0000CE020460721013402F0AAFA0E2CF8D1C4
:1004F000039B072123F0E05323F4787343F08063D8
:1005000043F4E073204603930F2702F099FA4FF06B
:10051000000343EC4470152443EC44400022384669
:10052000012102F0ABFA00222046012102F0A6FAD6
:100530003846072102F084FA2046072102F080FAAB
:10054000DDE901746FF31D4427F0F85744F084741B
:1005500044F480344FF480420021164B134847F096
:1005600070670294019706F063FC104C616811F407
:100570008031FBD144F2FF0C324648F2A0074AF228
:1005800047062B464FF48035C4F810C00748C4F81E
:10059000D870C4F8D860009506F0C6FC236843F014
:1005A0000103236009B0F0BD687F001000003050E7
:1005B000C42A0020FFFF20002DE9F8430124DFF8C2
:1005C0009890DFF89880214ED9F80030D8F80010C4
:1005D0001F48326804FA01F104FA03F3056804FACB
:1005E00002F21C4F0B43134325EA03033D4603600D
:1005F00006F004FC38464FF00041D9F80020DFF83F
:1006000060C0131D04FA03F3CCF8003002EB420281
:10061000D8F80030D20017441A1D04FA02F2CCF8C0
:10062000002003EB43033268DB001D4402EB42036E
:10063000DB00043218449440CCF800403960396043
:100640002960296001600160BDE8F883A41B0020D7
:1006500000002050D0102050442B0020A81B002068
:1006600000202050000000002DE9F04F2DED028BFE
:1006700014468FB002900491FFF79EFF052C00F204
:100680003381DFE814F0060006005D015D0106001D
:100690005D019D499D4806F037FB9D4981469B4879
:1006A00006F032FB9B498046984806F02DFB9FEDF3
:1006B000928B994BDFF878A219680746DFF874B27D
:1006C000924806F0FDFA9148DAF8001006F0F8FAC0
:1006D0008E48DBF8001006F0F3FA4FF440220021B8
:1006E0008DED068B09F1060609F10103360346EA92
:1006F000C316894BCDE90821186806AC0AAD4FF442
:10070000A80C039094E80F0085E80F000B960126D3
:1007100095E80F00DFF820E284E80F0006211020A2
:10072000CDF824E0CDF818C002F08AF93346102243
:1007300003990096754806F0B1FB23464A46039993
:10074000724806F0F1FB4FF440334FF440220A9315
:1007500008F10D030C921B0308EB060243EAC213D7
:1007600023F0C04343F08043DAF800900B936B4BC7
:10077000062111200D9302F063F9334611224946F8
:100780000096624806F08AFB42462B4649465F487F
:1007900006F0CAFB4FF4402200218DED068B4FF48A
:1007A000102E9FED577BCDE9082107F1080CBB1CEB
:1007B0004FEA0C3C4CEAC31C94E80F0085E80F009C
:1007C000CDF82CC095E80F0084E80F000621122018
:1007D0008DED087BCDF818E0DBF8008002F030F9F1
:1007E0000621132002F02CF90621142002F028F92A
:1007F0000323122241460096444806F04FFB23464D
:1008000041463A46414806F08FFB434B3F4C19683E
:1008100001F110039E4063683342FCD140F247155A
:100820000122DAF800000B1D44F8235000F11003F8
:10083000364D9A406B681342FCD140F2DF1601221C
:10084000DBF80040031D45F82360DFF8C08004F1A9
:1008500010039A40D8F804301342FBD101259F239E
:10086000029E05FA00F0D6F800C0261D48F8263092
:1008700005FA01F3034305FA04F10B43190201F4ED
:100880007061DFF8B8E003F00F030B43244A254FF3
:10089000CEF800302846C7F800C0176806F098FB6D
:1008A0004FF0A041204B8540820118600A44C1F8F6
:1008B0006454D3685B01FCD4C1F80C54A021029BA2
:1008C00007EB8606136007F12F4303F560031B0D4A
:1008D00004EBC304154B566003EA403343EA444338
:1008E00043F01103916013610FB0BDEC028BBDE8C2
:1008F000F08F00BFAFF300800000010000F00100A6
:1009000000000C405202300C3C80001000002050CF
:1009100018800010FC7F0010442B0020204600446B
:10092000B01B0020D82F0020A02F0020FDFF01FCCD
:10093000A81B0020A41B002000020004002020505F
:10094000AF49B04806F0E0F9AF498046AD4806F03F
:10095000DBF9AE490746AB4806F0D6F903469FEDF2
:10096000A48BAB4ADFF8C8A21168A648DFF8C4B26E
:10097000039306F0A5F9A348DAF8001006F0A0F9F1
:10098000A048DBF8001006F09BF94FF44029002145
:100990008DED068B9E4ACDE9089108F10806106896
:1009A00008F10103360306AC0AAD46EAC3164FF45C
:1009B000C02C059094E80F0085E80F000B960126E7
:1009C00095E80F00DFF870E284E80F0006211020A0
:1009D000CDF824E0CDF818C002F032F833461022EA
:1009E00005990096874806F059FA2346424605992C
:1009F000844806F099FA4FF480330A9307F10D0307
:100A0000BA191B0343EAC21323F0C04343F08043E7
:100A1000DAF800800B937F4B06211120CDF830903F
:100A20000D9302F00DF833464146112200967548A9
:100A300006F034FA3A4641462B46724806F074FAFC
:100A400000218DED068B039BCDE908910FF2A819CB
:100A5000D9E9008903F1080C4FEA0C3C02334CEA57
:100A6000C31C94E80F0085E80F00CDF82CC095E872
:100A70000F0084E80F0006211220DBF80070CDE99A
:100A8000088901F0DDFF0621132001F0D9FF0621BE
:100A9000142001F0D5FF032312223946009659484D
:100AA00006F0FCF92346039A3946564806F03CFA0C
:100AB000574A544C126802F110039E406368334257
:100AC000FCD140F28F250121DAF80000131D44F813
:100AD000235000F110034B4C994063680B42FCD14A
:100AE00040F2DF160121DBF80050031D44F82360BB
:100AF000444F05F1100399407B680B42FCD1012360
:100B000040F23F1E4FF0A04103FA00F003FA02F258
:100B100005F1040C024303FA05F52A43100200F420
:100B200070603D4E3D4C02F00F02024347F82CE04E
:100B30003260226803FA02F0394B92011D680A44C0
:100B4000C1F86404D3685E01FCD4C1F80C04012030
:100B50004FF0A046334F3B689A0198403244C1F8A9
:100B60006404D3685B01FCD4C6F80C04012006F0D1
:100B70002FFA2060012006F02BFA0121D4F800C0E2
:100B8000DBF80040284A04F1040E05EB8E04029DB8
:100B9000386002EA4C322F684FEA8C1505F1A04507
:100BA00042EA4032214B2F6042F480226C60049C68
:100BB00003EA403342F01102AC6043EA4C332A614D
:100BC0008001029A00F1A04043F4FC03026043F06C
:100BD000090301FA0CF2456081600361C6F85024F4
:100BE0000FB0BDEC028BBDE8F08F00BFAFF300800B
:100BF0000000010000F0010000000C405202300C27
:100C0000E07F001000002050BC7F0010A07F00108B
:100C1000442B00202046004400202050A02F00201C
:100C2000B01B0020A42F0020FD1F00FCFD1F7EFC38
:100C3000A81B0020A41B002000020004054B1B6819
:100C40005B6D5A68197C13885B1A1BB223EAE37345
:100C500013807047D02F0020054B1B685B6D5A68CE
:100C6000597C53885B1A1BB223EAE37353807047A5
:100C7000D02F00200B4B1B68596D4A680B7C1088E5
:100C800003441BB24F2B01DC1380704700201080FF
:100C9000B2F802C04B7C63441BB21E2BD4BF5380FE
:100CA00050807047D02F0020064B1B685B6D5A6840
:100CB0005B7C51880B441BB21F2BA8BF00235380C1
:100CC000704700BFD02F0020024B1B685B6D9862FD
:100CD000704700BFD02F0020002110B5064C0846F9
:100CE00023685A6D1B695268117198470122236865
:100CF0005B6D5B681A7110BDD02F00200A4B1B681A
:100D00005B6D187205280AD8DFE800F006060303B9
:100D10000603064A1A607047054A1A6070470222A5
:100D200002491A7219607047D02F00208002E0013A
:100D30004001F0000F4B1B685B6DB3F800C08445A9
:100D400017D900B5B3F802E08E4510D91A7C12FB12
:100D500000F258685B7C92B213FB01F39BB294459E
:100D600098BF00229E4598BF0023028043805DF813
:100D700004FB7047D02F0020024B1B685B6D987CF2
:100D8000704700BFD02F0020024B1B685B6D5B6873
:100D9000D8807047D02F0020024B1B685B6D5B68CA
:100DA000D8887047D02F0020024B1B685B6D5B68B2
:100DB00018717047D02F0020024B1B685B6D5B6879
:100DC00058717047D02F0020024B1B685B6D18765E
:100DD00059767047D02F0020024B1B685B6D187E40
:100DE000704700BFD02F0020064B10B51B680021B4
:100DF0005C6DE269A06A06F043FC002263681A6039
:100E000010BD00BFD02F0020014B1868704700BFF5
:100E1000D02F0020114B30B51B685C6D40EA0103F8
:100E2000B4F802E0DB0F8E45D8BF43F00103B4F8FD
:100E300000C06BB984450BDD01FB0C00A56A4110B5
:100E4000C0076B5C05D5208C034043EA02126A544C
:100E500030BD608C03401A436A5430BDD02F00204F
:100E60007A4B2DE9F04F1B6885B0D3F85490D9F830
:100E7000043099F818701D7999F81960B3F9004099
:100E8000B3F902A0002D75D05D79002D3AD08046CF
:100E9000002800F0A5801D7A514610230822204624
:100EA000009601F095FC99F8113015FB03F133B36E
:100EB0000022674BCDF808901944CDF80CA091465C
:100EC0008A4607344FF0070B039B1AF8018F03EB98
:100ED00009052DB248FA0BF3DB07A4EB0B004CBF5E
:100EE0003A463246294600B2FFF794FFBBF1010BA8
:100EF000F0D2029B09F101095B7C9945E2DB05B068
:100F0000BDE8F08F93F80880514610230822204650
:100F1000009601F05DFC99F8113018FB03F1002BED
:100F2000EDD04B4BCDF808901944CDF80CA0A94654
:100F30008A4607344FF0070B039B1AF8018F03EB27
:100F400009052DB248FA0BF3DA07A4EB0B004CBFEE
:100F50003A463246294600B2FFF75CFFBBF1010B6F
:100F6000F0D2029B09F101095B7C9945E2DB05B0F7
:100F7000BDE8F08F1023514608222046009601F06C
:100F800027FC99F811305901002BB8D0314BCDF81E
:100F900008901944CDF80CA02A468946AA46073481
:100FA0004FF0070B039B19F8018B0AEB03052DB2D9
:100FB00048FA0BF3DB07A4EB0B004CBF3A46324672
:100FC000294600B2FFF726FFBBF1010BF0D2029BCE
:100FD0000AF1010A5B7C9A45E2DB05B0BDE8F08FBF
:100FE0001023514608222046009601F0F1FB99F8A3
:100FF00011305901002B82D0164BCDF808901944BE
:10100000CDF80CA04246C1468A4607344FF0070B84
:10101000039B1AF8018B09EB03052DB248FA0BF379
:10102000D907A4EB0B004CBF3A463246294600B222
:10103000FFF7F0FEBBF1010BF0D2029B09F10109B1
:101040005B7C9945E2DB05B0BDE8F08FD02F002036
:10105000B7050020B80500202DE9F04FAC4D89B050
:101060002B685C6DA0F10803052B3CD8DFE803F08A
:101070001BB3123B3B036368002201201A80FFF779
:10108000EFFE62686388B2F902709F421FDA09B00E
:10109000BDE8F08F0020FFF7E3FE6368627C5988AB
:1010A0000A445A80E8E70020FFF7DAFE6268217CF4
:1010B000138801205B1A1BB223EAE3731380FFF746
:1010C000CFFE62686388B2F902709F42DFDBFFF7F0
:1010D00089F9002263681A80617C5A88521A5A8002
:1010E00009B0BDE8F08F237E62680493A37C0646B6
:1010F000022B94F819B0B2F90090B2F9027078D0CE
:101100001023484608223946CDF800B001F060FBB4
:10111000637C16FB03F0002B00F0D7801FFA89F3E5
:1011200019464FF000097B4AD5F8008010444FEA79
:101130000B120592049ABDB21201CDE906240A46AB
:10114000072610F801AF0FFA85FECDF80C9017E0D6
:1011500083B909FB0E49BC6A4FEA690C19F0010F0B
:1011600014F80C3000F0C6803F8C1F40069B1F43D4
:1011700004F80C70013E0132731C92B200F09980A9
:10118000D8F8547045EA02047B88B7F800909E4571
:10119000B4BF002301234AFA06FC43EAD43314B255
:1011A000A145D8BF43F001031CF0010FD0D1002BA3
:1011B000E0D109FB0E44D7F828904FEA640CE4070D
:1011C00019F80C3040F19D803C8C1C40059B1C4361
:1011D00009F80C40CEE7616894F82400B1F90020CA
:1011E000238802449342B1F902706388C8BF0A8021
:1011F0004BE72088638848456EDD9F426CDA19F121
:101200000B0F69DB17F10F0FC0F2888000230093EA
:10121000102339461A46484601F0DAFA049B1FFAB1
:1012200089F55B4506EB86063B4BBAB27DD033446D
:101230001F4605F10A0102F110090394049C89B2CA
:101240001FFA89F917F8018B0FFA85FACDE90427FF
:10125000069516465D460F469346022318F0010F89
:1012600031B206F1020614BF0094009550461A46AA
:10127000B6B201F0ADFA4E454FEA5808EDD1394605
:101280005A46AB46069D049B0235ADB28D42059F82
:10129000D8D11F465E46039C2DB2022339B20237D5
:1012A00028461A460096BFB201F092FA4F45F4D193
:1012B0000BE0079BDDF80C905B7C09F1010901351F
:1012C0009945ADB2FFF63BAF079C62682088B2F942
:1012D0000090B2F902706388217C494409B28142CE
:1012E0001180FFF6D2AE0020617C108039440FB22D
:1012F0005780CAE67F8C3B40049F3B4304F80C3088
:1013000038E77C8C23404BEA030309F80C3031E7C3
:10131000D02F0020B705002068800010217C4944B0
:1013200009B288421180DEDDB1E60394144605F16E
:101330000A0702F1100906EB030BBFB21FFA89F985
:1013400026460FFA85FA5446B2461BF8018B18F070
:10135000010F07D00223049A2046009231B21A46A8
:1013600001F036FA0236B6B24E454FEA5808EED1D1
:101370000235ADB2AF425446E2D1039CA5E700BFAF
:1013800030B5044600780D4685B028B1FFF764FEFD
:1013900014F8010F0028F9D100240D4BC5F30312F6
:1013A00005F00F05985C5B5D8DF804008DF8053045
:1013B0008DF806408DF80C4040B10134E4B2FFF7DF
:1013C0004BFE0DEB040318790028F6D105B030BDB3
:1013D0005480001070B50446094D00202B689B69AD
:1013E0009847207828B1FFF737FE14F8010F00283E
:1013F000F9D12B680120BDE870409B69184700BFF8
:10140000D02F002030B5044600780D4685B028B1B5
:10141000FFF722FE14F8010F0028F9D100241D4B1C
:10142000C5F3031205F00F05985C5B5D8DF80400B1
:101430008DF805308DF806408DF80C4040B1013430
:10144000E4B2FFF709FE0DEB040318790028F6D18A
:101450000025114B00201B685C6DFFF701FD6368E0
:10146000627C59881D800A445A800120FFF7F8FCED
:1014700062686388B2F902209A4201DA05B030BD91
:10148000FEF7B0FF63681D80617C5A88521A5A804B
:1014900005B030BD54800010D02F00202DE9F84F4A
:1014A0000646582002F0D6FE05463F4F2C203D60F0
:1014B00002F0D0FE0446002D6DD000286BD0012034
:1014C00005F086FD0246394B0C201A6001F0ACFA9B
:1014D0000346374DDFF8188132464FF4163128465F
:1014E000C8F80030FFF7C0F83B68DFF808B15C656A
:1014F00001F05CFA0722D5F800C04FF4163104253C
:10150000D8F8003022831A686060E26030469E8816
:10151000DFF8E4A026829B796261A374254BC4F8AE
:1015200028C0C4E9071384F82450FFF7E7FB3B68A1
:101530002149224A2248C3E90912224A2249586114
:101540001A622248224A9863C3E90C122148224AAF
:10155000DFF8A8E0C3E91102DFF8A4C01F49204A60
:10156000DFF8A090DFF8A0801E4E1F4D1F4CC3E98E
:101570000098C3E90665C3E91312C3F82CB0C3F899
:101580000CA0C3F810E0C3F83CC09C6000F03EF82B
:101590003868BDE8F88F284602F078FE204602F051
:1015A00075FE0020F5E700BFD02F0020502F00204F
:1015B000B41B00200F00F000D90C0010FD0C00102F
:1015C000890D0010C90C00100514001059100010EE
:1015D00081130010A90C0010750C0010590C00109C
:1015E0003D0C0010A90D0010B90D0010990D001050
:1015F0003C2B0020D5130010C90D0010350D001034
:10160000E90D0010D90D0010790D001070B5C0B0B3
:10161000FFF7FAFB6C460D4B0D4DC66A18600FCDF7
:101620000FC495E8030044F8040B21706846B047E6
:1016300014242046052201340A21FFF7EBFBA3B254
:10164000292B24B2F5D140B070BD00BFD42F0020AB
:10165000307D0010F8B55518A9420BDA0C46074644
:101660001E46214601343246384624B2FFF7D2FBEB
:10167000AC42F6DBF8BD00BF2DE9F041214C2468F7
:10168000D4F85480B8F800C0844519DD1F46B8F876
:1016900002300E468B4213DD83189C45B8BFACEB7D
:1016A000000C1446B8BF0CF1FF34C207054620D425
:1016B000E30715D46210002A02DDB6F5F07F01DBE6
:1016C000BDE8F081D8F8280006EB86066D1005EB22
:1016D000861547EA07112844BDE8F04105F0D0BF60
:1016E000281901383A4600B231B2FFF793FB013CAA
:1016F000E0E73A4609B200B2FFF78CFB0135013C46
:10170000D6E700BFD42F00202DE9F84FA3EB010A44
:1017100006468346101A0C461F468C468AEAEA7330
:1017200080EAE071A3EBEA73A1EBE0718B429DF8D4
:10173000289033DCB24271DAA6EB020AA4EB070868
:10174000CAF3C035B8F1000F05FA8AF5B8BFC8F181
:101750000008A7421FFA8AFA4FEA650570DA304698
:1017600014463E464FF0010B07468B421FFA88F89D
:101770003FDD21464A463046FFF74CFBA5EB080308
:101780001DB20134002D24B29BB203DA5E445344EF
:1017900036B21DB2BC42ECDDBDE8F88FA74217DAC5
:1017A000A4EB070AA6EB0208CAF3C035B8F1000F94
:1017B00005FA8AF5B8BFC8F10008B2421FFA8AFAE2
:1017C0004FEA650549DA964626463A467746C6E721
:1017D000CAF3C03505FA8AF5B24288461FFA8AFA7A
:1017E0004FEA65053FDC8B424FF6FF7B1FFA88F816
:1017F000BFDC20464A463146FFF70CFBA5EB080349
:101800001DB20134002D24B29BB203DA5E4453446E
:1018100036B21DB2BC42ECDDBDE8F88FC0F3C03576
:10182000A74205FA80F53446174666461FFA80FA45
:101830004FEA65050DDC4FF6FF7B1FFA83F8D8E70A
:101840003E4614465F464FF6FF7BA7428DDABDE861
:10185000F88F98464FF0010BF7E73C46164667466F
:101860004FF6FF7B81E74FF0010B7EE72DE9F04F4C
:101870001F4682460E46904694B21FFA81FBC4EB87
:10188000C43385B05B0004EB0B011BB2029209B2BA
:101890003A460393FFF7BEFAABEB040150463A46D3
:1018A00009B21FFA8AFAFFF7B5FA04EB0A003A46C2
:1018B000314600B2FFF7AEFAAAEB040031463A46D1
:1018C00000B2FFF7A7FA4346002B68DDC4F101051B
:1018D0002DB22B464FF00008554601E09CB2019B0B
:1018E00008F101081FFA88F605EB060A0FFA8AFAD2
:1018F000002B3A4650460FFA88F899B20ADB039B50
:10190000023311FA83F11BB20393631E9CB21BB224
:1019100089B2029301EB460101310BB2A5EB060936
:101920000BEB040109B20FFA89F901930091FFF75B
:1019300071FA48463A460099FFF76CFAABEB04019E
:10194000504609B23A4600910BEB060AFFF762FADD
:10195000484605EB04093A4600990FFA89F90FFA4F
:101960008AFA2C1BFFF756FA24B23A4651464846EB
:10197000ABEB0606FFF74EFA36B23A465146204622
:10198000FFF748FA3A4631464846FFF743FA3A46E7
:1019900031462046FFF73EFA029B43459EDC05B0E8
:1019A000BDE8F08F2DE9F04F154689B01FFA82F996
:1019B000002D9DF848B0C9EBC93262DD52000FFA24
:1019C00082FE03F00202C9F1010403F0040C02924A
:1019D00003F0080213F0010324B2019254D1BCF1C8
:1019E000000F40F0C580E146F24687B28EB204E0B7
:1019F000019B002B30D14D4543DD09F10109002C3D
:101A00001FFA89F8A3B208DB0AF1020A13FA8AF373
:101A1000013D2DB29BB20FFA8AFA03EB4803013362
:101A20001CB2029B0FFA89F9002BE1D0ABB2F11A7C
:101A300007EB08005A4609B200B20393FFF7EAF930
:101A4000039BA6EB0801F8185A4600B209B2FFF74B
:101A5000E1F9019B002BCED0ABB2F81A06EB0801DE
:101A60005A4609B200B20393FFF7D4F9039BA7EBE0
:101A7000080099195A4609B200B2FFF7CBF94D4553
:101A8000BBDC09B0BDE8F08F4FF00008F246CDE9AD
:101A9000034C87B28EB217E0029B002B44D1019B0E
:101AA000002B54D1311BA7EB09005A4609B200B2F2
:101AB000FFF7B0F9381BA6EB09015A4600B209B28C
:101AC000FFF7A8F94545DCDD039B08F10108002B71
:101AD0001FFA88F49AB20ADB0AF1020A013D12FAEF
:101AE0008AF21FFA85F992B22DB20FFA8AFA02EB46
:101AF0004402013213B20393049B0FFA88F8002BBF
:101B0000CAD006EB090138195A4609B200B2FFF7EC
:101B100081F9311907EB09005A4609B200B2FFF703
:101B200079F9029B002BBAD0A6EB090138195A4665
:101B300009B200B2FFF76EF9311B07EB09005A46F4
:101B400009B200B2FFF766F9019B002BAAD0311948
:101B5000A7EB09005A4609B200B2FFF75BF909EB9F
:101B60000601381B5A4609B200B2FFF753F999E74C
:101B7000CDE903B587B29B468EB2CDF81CE006E0F6
:101B8000019B002B49D1049B9B45BFF67AAF0BF11B
:101B90000103002C9DB20FFA83FBA3B20CDB079A62
:101BA00004990232013913FA82F31FFA81F912B251
:101BB00009B29BB20491079203EB450301331CB2B7
:101BC00006EB09027B191BB212B207EB090A06EBFE
:101BD00005081846114606920FFA8AFA039A0FFA78
:101BE00088F80593FFF716F9039A41465046FFF728
:101BF00011F9029A059B002AC2D0A6EB09011846EA
:101C0000039A09B2FFF706F9711B5046039A09B20D
:101C1000FFF700F9019B002BB5D04146DDF80C80A1
:101C2000A7EB0900424600B2FFF7F4F8781B4246E2
:101C3000069900B2FFF7EEF8A5E700BF914244DB3A
:101C40002DE9F04F9B465318B3F5F07F83B036DA99
:101C5000002A34DB0D46002602FB022702F10109AF
:101C60004FEA4108019016FB06F3FB1AB3F1804FCF
:101C70004FF0804203D292089342FCD312B300206B
:101C8000811899424FEA50009CBF80185B1A920855
:101C9000F6D14FEA400A019BA8EB05011C1A5246F7
:101CA0005B462046FFF7E8FC013629465B46524674
:101CB0002046FFF7E1FC4E4505F1FF35D3D103B0D7
:101CC000BDE8F08F92461046E5E770472DE9F04FEA
:101CD000002A89B095B21646BDF948409DF84C904F
:101CE000C5EBC53C40F3B680A4B289B2029104F1C1
:101CF000030B611C1FFA8BFB059103F0010103F03C
:101D000002034FF0000A03935B46C5F101054FEA59
:101D10004C0C2DB20FFA8CF280B2D3460190AA4639
:101D200004911D46009207E0039B002B5BD1AB1C86
:101D30005E459DB240F38E80BAF1000F1FFA8AF221
:101D40000ADB009B711E03F1020812FA88F20FFAF7
:101D500088F30EB2009392B20BF1010B1FFA8BF4D1
:101D600002EB4402049B01320FFA8BFB0FFA82FA5A
:101D7000002BD9D0029AB3B2D71A059A3FB202EB20
:101D8000430E019A07FA8EF81019474500B20FDA90
:101D9000CDE906343C464746804621464A46404601
:101DA000FFF738F8611C0CB2BC42F6DBDDE9063403
:101DB000019A1A44029B12B21F1B3FB207FA85F820
:101DC0004745B1DA06943C464746904621464A4686
:101DD0004046FFF71FF8611C0CB2BC42F6DB039BC8
:101DE000069C002BA3D0029BB2B29F1A059B3FB268
:101DF00003EB420E019B07FA8EF8181B474500B211
:101E00000FDACDE906243C464746804621464A463D
:101E10004046FEF7FFFF611C0CB2BC42F6DBDDE979
:101E20000624029B1C1B24B2019B04FA85F89A1A13
:101E3000444517B2BFF67BAF214601344A463846C7
:101E400024B2FEF7E7FF4445F6DBAB1C5E459DB2CE
:101E50003FF772AF09B0BDE8F08F00BF2DE9F04F3A
:101E600092461C460F4606468BB0BDF950309DF891
:101E700054500493049A2B4600EB0208AAEB420943
:101E80004A464046FFF7F8FBE1194A4640462B46D2
:101E90000139FFF7F1FBBDF810C0BBB24FEA4C07A8
:101EA00003EB0C09A1B2BFB20FFA89FBCC1B1FFADE
:101EB00086F80BFA84F4C24406935C451FFA8AF351
:101EC00007911FFA89F902931BDD0197E2465F46ED
:101ED00039462A463046FEF79DFF791C0FB2A742CD
:101EE000F6DB029B019F5E1E36B259460BF1010BD9
:101EF0002A4630460FFA8BFBFEF78CFFA345F4DB36
:101F0000D4467F423BB20393CCF101031BB205934D
:101F1000049BE044002B1FFA88F840F3F780DDF8BB
:101F20000CB0059CCDF804B00027A3461C46CDF8A4
:101F300020C001371FFA87FAA9EB0A01BBF1000F95
:101F40002A4609B23FB2A6B21FFA8BF00BDB019B07
:101F5000741E03F1020B10FA8BF00FFA8BF3A6B28A
:101F600080B224B2019300EB4A03A8EB06000133D0
:101F700000B20FFA83FBFEF74DFFA9EB0601A8EBB9
:101F80000A002A4609B200B2FEF744FFA742D0DB9E
:101F9000DDF820C0029B0026A3EB0C039BB21A467F
:101FA0000293DDE903B39A46013A92B2059C01928D
:101FB000CDF82080CDF824C0029BB6B2721C002C54
:101FC0001E441FFA82F830B21FFA8AF716B2A2B284
:101FD0000CDB0BF1020B07F1FF3A12FA8BF21FFA3E
:101FE0008AF792B20FFA8AFA0FFA8BFB02EB4802D9
:101FF000A9EB0701531C09B22A461CB2FEF70AFFDF
:10200000019BA9EB0801D8192A4609B200B2FEF7D4
:1020100001FF5645D0DBDDE9088C079B069A013BA2
:102020001A440026DDE903B39946A2EB0C0A059C8D
:102030001FFA8AFACDF81880CDF81CC0029BB6B200
:10204000721C002C1E441FFA82F830B21FFA89F766
:1020500016B2A2B20CDB0BF1020B07F1FF3912FA38
:102060008BF21FFA89F792B20FFA89F90FFA8BFBFC
:1020700002EB48020AEB0701531C09B22A461CB2C4
:10208000FEF7C8FE019B0AEB0801D8192A4609B2DF
:1020900000B2FEF7BFFE4E45D0DBDDE9068CDDE980
:1020A000049B0024664601E01FFA89F60134A7B2BA
:1020B0000AEB0701BBF1000F2A4609B224B21FFA4E
:1020C0008BF00EDB039B06F1FF3903F1020B10FAD4
:1020D0008BF00FFA8BF31FFA89F680B203930FFA95
:1020E00089F900EB470001300FFA80FBA8EB0600EE
:1020F00000B2FEF78FFE0AEB0601A8EB07002A46A6
:1021000009B200B2FEF786FE4C45CDDB0BB0BDE850
:10211000F08F00BF2DE9F04F06468DB0BDF9580095
:10212000DFF8A8861FFA80FE0490D8F800004FEA76
:102130004E04476D91469AB29DF85C30B7F800C0E6
:10214000A0B28CB2009304EB0E031BB2664502935F
:1021500041DA1D467B8801959D423CDA131A1BB279
:10216000002B03EB050A36DDF30700F1DE81B5F540
:10217000F07FC0F24381CDE905E2019D3A4606EBCE
:10218000090B0746039401910AE04C46E00713D47B
:10219000D8F80020526DB2F800C00135AA4513DD11
:1021A0006645FADA51888D42F7DADC45EDDAACEBB8
:1021B0000604013CE007EBD5701E2044009A00B2F3
:1021C00029B2FEF727FEE3E73846039C1746DDF801
:1021D00014E0069A0199B3B203937344A4EB0E047E
:1021E0001DB2224465451FFA89F49BB20FFA82F9A9
:1021F00042DA221A12B201927A880E46914262DACB
:10220000049A002A02EB010A36DD03F00102D90725
:10221000059200F1C081B6F5F07FC0F23881019AD5
:10222000CDE906E905EB020BA1461C460BE0019F38
:10223000FB0714D4D8F80020576DB7F800C001365A
:10224000B24540F389806545F9DA7A88B242F6DD15
:10225000E345ECDDACEB0507013FFB07EAD5601E6B
:102260003844009A00B231B2FEF7D4FDE2E75C4692
:10227000DDF814E0DDF81890039E009F2644DDF899
:102280000880A6EB0E060EF1FF3E0FFA8EF436B272
:102290003B46224641463046FFF7D0FC3B462246AD
:1022A00041462846FFF7CAFC3B462246494630468F
:1022B000FFF7C4FC3B462246494628460DB0BDE820
:1022C000F04FFFF7BBBC91454E46D5DA049A002A81
:1022D00002EB090AD0DD03F001020592059A002AFB
:1022E0004CD0019BCDE904E405EB030B6B1C3C4691
:1022F0000793CDF818900FE05210002A03DDB6F5D1
:10230000F07FC0F28D810136564580F27681D8F893
:102310000020546DB4F800C06545F4DA6288B2421A
:10232000F1DDDC45B4BFACEB0507019F0FFA86F980
:10233000B8BF07F1FF37009A49462846FEF76AFD05
:10234000FB0707F1FF32D7D42A4410B24946009A5E
:10235000FEF760FDBA1ECFE72346DDF818E04C46D5
:10236000DDF81C90654587DA7A884E464A4583DD5C
:10237000049A4A449246059A002AB2D1013B04933A
:10238000019BCDE905E905EB030BD946A3463C4685
:10239000374611E0019EF2071AD47210002A02DDBE
:1023A000B7F5F07F1DDB01375745BFF660AFD8F8B2
:1023B0000020546DB4F800C06545F4DA6288974295
:1023C000F1DAE145E6DDACEB0506013EF207E4D5C6
:1023D000049B009A981900B239B2FEF71BFD013E2A
:1023E000DBE707EB8701A06A009B890101EB650130
:1023F000084443EA031105F043F9D4E740F2DF1340
:102400000AF1FF3B9B45A8BF9B46009BCDE9054ECB
:1024100043EA0313CDE907200393099118E04C46E2
:10242000E30723D46210002A2BDDB86A05EB85048C
:10243000711001EB84110844039905F021F9D8F8D3
:102440000020576DB7F800C001355D4500F30181EC
:10245000B445F9DD7A88AA42F6DD06EB0902944517
:10246000DDDAACEB0604013CE307DBD5701E20444B
:10247000009A00B229B2013CFEF7CCFC6210002A9F
:10248000D3DCD8F80020576DB7F800C0DCE740F285
:10249000DF120AF1FF3B9345A8BF9346009ACDE9AE
:1024A000084A42EA0212DA46CDF828909B46CDE966
:1024B000062EDDF8049018E04C46E20723D46210A3
:1024C000002A2CDD06EB8601B86A890101EB650163
:1024D0000844069905F0D4F8D8F80020576DB7F8ED
:1024E00000C00136564500F3A9806545F9DA7A88BF
:1024F000B242F6DD05EB09026245DDDDACEB050419
:10250000013CE207DBD50BF1FF302044009A00B21A
:1025100031B2013CFEF77EFC6210002AD2DCD8F812
:102520000020576DB7F800C0DBE7B5F5F07FC0F2CB
:102530009A8093463A465746CDE9054E06EB090385
:10254000019D03930790019166451ADA51888D42E7
:1025500017DA039B0FFA85FA9C45AEBF4C46ACEBED
:10256000060404F1FF3430465146009AFEF752FC4F
:10257000E30704F1FF304CD5D8F80020526DB2F8D3
:1025800000C00135AF42DFDCDDE9054E1746079894
:102590005A4601991FE6B6F5F07FC0F2B580079460
:1025A000F34654469A46019ACDF82090AA1806920E
:1025B00065451ADA7A88964217DA069B0FFA86F989
:1025C0009C45B6BFACEB0507019F07F1FF374946B5
:1025D0002846009AFEF71EFCF90707F1FF3011D5D7
:1025E000D8F80020576DB7F800C00136B442DFDCE0
:1025F000DDE90749DE465346B4E6DDF81890DDE92B
:1026000004E439E628444946009A00B2FEF702FC89
:10261000E6E730445146009A00B2FEF7FBFBABE719
:10262000079BA06A591006EB8604009B01EB8411FE
:10263000084443EA031105F023F864E6DDE9084A9B
:10264000B2455B46DDF81CE0DDF828903FF7E7ADCA
:1026500088E6AA4509990195DDE9054EDDE90720DF
:102660003FF789ADB7E540F2DF130AF1FF359D4230
:10267000A8BF1D462B46009DCDF824A045EA0515B0
:1026800003959A46CDE9054ECDE90720019D0A91B3
:1026900014E05210002A09DD05EB8501B86A5B10D1
:1026A00003EB81131844039904F0EAFFD8F80030D3
:1026B0005F6DB7F800C00135554571DC6645FADA43
:1026C0007B88AB42F7DD06EB09039C45ACBF4C466B
:1026D000ACEB06040FFA85FBB8BF04F1FF34594692
:1026E000009A3046FEF796FBE10706F1010304F17C
:1026F000FF32CED4324410B25946009A0193FEF70D
:1027000089FB019BA21EC4E740F2DF120AF1FF31F0
:102710009142A8BF11460A460099934641EA011129
:10272000CDE9061ECDE90834CDE90AA915E052101D
:10273000002A0ADD06EB8601B86A4FEA6A0303EB5A
:1027400081131844069904F09BFFD8F800305F6DA0
:10275000B7F800C001365E452EDC6545FADA7B88A5
:10276000B342F7DD019B0FFA86F9EB189C45B6BF23
:10277000ACEB0504019C04F1FF342846009A49465D
:10278000FEF748FBE00705F1010A04F1FF32CED461
:102790002A4410B24946009AFEF73CFBA21EC6E747
:1027A000DDF824A00A9955450195DDE9054EDDE9DE
:1027B0000720FFF6BEAE0EE5DDE9094A5645DDF815
:1027C0002C90DDE907E3FFF6EAAECBE5D42F00203D
:1027D0002DE9F04F494F9E463B6885B05B6D9DF8F3
:1027E00038A01D88A84237DA90465A880C46914294
:1027F00032DABEF1000F0EEB01092DDDC1073AD42C
:10280000421ECDE9018200EB080B1E4680460EE019
:10281000019DEA0717D46A10002A02DDB4F5F07FA3
:102820001DDB0134A14517DD3A68566D3588A84592
:10283000F7DA7288A242F4DDAB45E9DDA5EB0805C5
:10284000013DEA07E7D5029B5246581900B221B272
:10285000FEF7E0FA013DDEE705B0BDE8F08F04EBDE
:102860008401B06A890101EB680108444AEA0A114F
:1028700004F006FFD5E700EB08020192421C8346F4
:102880001E460392CDF808800BE05210002A02DDAC
:10289000B4F5F07F25DB01344C45DDDA3A68566D3E
:1028A0003588AB45F7DA7288A242F4DD019B0FFA56
:1028B00084F89D42B6BFA5EB0B05029D05F1FF35DF
:1028C000524641465846FEF7A5FAEB0705F1FF329E
:1028D000DBD45A4410B241465246FEF79BFAAA1E78
:1028E000D3E7039BB06A04EB8405591001EB851113
:1028F00008444AEA0A1104F0C3FECCE7D42F0020B2
:10290000704700BFB0F5207F02D2024B1B681880D1
:10291000704700BFB42F0020B0F5F07F02D2024B09
:102920001B685880704700BFB42F0020B0F5207F8F
:1029300002D2054B1B681880B1F5F07F02D2024B22
:102940001B685980704700BFB42F0020014B1B68E3
:1029500018717047B42F0020014B1B6858717047E5
:10296000B42F0020014B1B68D8807047B42F002083
:10297000014B1B68D8887047B42F0020014B1B689F
:1029800018727047B42F0020014B1B6818887047DD
:10299000B42F0020014B1B6858887047B42F0020CB
:1029A000014B1B6818797047B42F002010B53820F0
:1029B00001F050FCE8B1002280230E4C0E4920604B
:1029C00041600E4C0E490260C0E903410D4C0E49B6
:1029D0000372C0E905410D4C0D49C0E907410D4C9A
:1029E0000D49446341620D4C0D49C0E90A410D494E
:1029F000016310BDB42F00200101960005290010CD
:102A0000192900102D2900104D29001059290010F6
:102A100065290010712900107D29001089290010F6
:102A200095290010A12900100A38C0B203289ABFC6
:102A3000024B53F820000020704700BF648500104F
:102A400010B44FF480740C4B53F8202003EB800338
:102A5000C00082F0400200F1804003F5805C02F08B
:102A6000C00200F5203003F54053CCF8002041604F
:102A70001C605DF8044B70470480034010B4084CA0
:102A8000C90041EA820154F8202004EB8003514040
:102A900003F5805301F00C015DF8044B1960704799
:102AA000048003400FB400B583B0049C074801F0D4
:102AB00071FD3CB105A92046019101F0FBFB0448E2
:102AC00001F068FD012001F00DFC00BF787D0010D1
:102AD000887D0010EFF3108072B6064BD3E8CF1F4D
:102AE00001220029FAD1C3E8412F0029F6D1BFF312
:102AF0005F8F7047AF2600200023034AC2E88F3F54
:102B000080F31088704700BFAF26002070B586465E
:102B1000EFF3108572B6124CD4E8CF6F0120002E6F
:102B2000FAD1C4E8460F002EF6D1BFF35F8F4FF005
:102B3000010CC80801F007030CFA03F31EF800C0EB
:102B40001CEA030608D14CEA030C0EF800C0C4E8E6
:102B50008F6F85F3108870BD1046FFF7A3FF00BF8D
:102B6000AF260020F8B5EFF3108772B61C4ED6E8FA
:102B7000CF5F0124002DFAD1C6E8454F002DF6D1D4
:102B8000BFF35F8F9A421BD8012502E001329342C6
:102B900022D3D40810F804E002F0070C05FA0CFC6C
:102BA0001EEA0C0FF2D14EEA0C0E00F804E01046BB
:102BB0000023C6E88F3F87F31088984207DBF8BDF3
:102BC0000023C6E88F3F87F310884FF0FF300029BD
:102BD000F5D00698FFF766FF4FF0FF30E8E700BF3B
:102BE000AF260020044A1078431CDBB2182B28BF04
:102BF00010231370704700BFE81B002010B5054C70
:102C000082B001461F23182200940348FFF7AAFF51
:102C100002B010BD8C7D0010D02A00204FF0E022C1
:102C2000936843F000539360704700BF0021044B4A
:102C300003F12002C3E88F1F01339342FAD170479A
:102C4000A42600204FF0E0234FF08032C3F8002488
:102C5000C3F80424C3F80824C3F80C24C3F81024D0
:102C6000C3F81424C3F81824C3F81C24C3F8202480
:102C7000C3F82424C3F82824C3F82C24C3F8302430
:102C800062B67047012300F01F029340400941B132
:102C9000800000F1604000F56140C0F880310360C1
:102CA0007047024A203042F82030704700E100E0CF
:102CB0000123064A410952F8212000F01F0003FABF
:102CC00000F01040003818BF0120704700E100E01C
:102CD00001224309034900F01F008240403341F8BC
:102CE0002320704700E100E0054A10309268054B50
:102CF00052F82000C01A2F288CBF002001207047F6
:102D000000ED00E0EC1B0020F8B50D46EFF3108756
:102D100072B6124ED6E8CF2F0123002AFAD1C6E8A8
:102D2000423F002AF6D1BFF35F8F0D4B00F1100434
:102D30009B680C4A53F82430934203D0994201D047
:102D400001F064F9064B9B6843F82450BFF35F8F92
:102D50000023C6E88F3F87F31088F8BDAD2600201A
:102D600000ED00E0110100102DE9F04F81468B4687
:102D7000164683B0EFF3108372B6DFF8D0A100934C
:102D8000DAE8CF1F01230029FAD1CAE8413F002920
:102D9000F6D1BFF35F8F664B93F90040002CC0F271
:102DA000A080644D04EB440705EB870898F80610F3
:102DB00009F110091970604BBF009B6853F8290096
:102DC0006300411B2F292FD95C49884240F0A48021
:102DD0001C445B4B02372F44043BDB1BC3F34A0309
:102DE0006FEAC3434FF421416FEAD34325F824101F
:102DF00005EB840463804BF60153A380FF2348F066
:102E00000100E671C4F808B0A3714B4B9B6843F80E
:102E10002900BFF35F8F0023CAE88F3F009B83F335
:102E2000108803B0BDE8F08F20F0010E9EF8071067
:102E3000B1422ED84FF42143EB53414BB91C2944E6
:102E4000043B04375B1A2F44AEF10401C91BC1F3E4
:102E50004A043C49C3F34A030B432143A8F8041036
:102E60003949A8F802304AF6AA2073465B1B5B4139
:102E70005843000D88F8076088F80600C8F808B0C5
:102E800048F00100CEF80010BFE7D179B1422ED949
:102E900096469EF906C00CEB4C02BCF1000F05EB08
:102EA0008202F2DA4BF601510EF10402A8F1040796
:102EB000BF1AC7F34A076FEAC7476FEAD7478EF8CA
:102EC000064003EB0408204C05EB8803AEF80470C1
:102ED00045F82840998083F806C0DE71C3F808B031
:102EE00093E701F093F8124B93F9004059E77246CB
:102EF00032F8041F490514D44915023102EB41018F
:102F000001916FF00701C91B019F491B3944C1F3AF
:102F10004A0141F46041C9E7019301F077F8019B50
:102F200056E701F5FF1101F5FF511F31E4E700BF3E
:102F3000F8870220EC1B002000ED00E011010010DA
:102F40001C1C002000E0FFFF01488047AD26002048
:102F5000F0B5EFF30585EDB2EFF3108C72B62649AC
:102F6000D1E8CF2F0123002AFAD1C1E8423F002A3D
:102F7000F6D1BFF35F8F214E40F0010EB4684AF6E0
:102F8000AA2354F825701E4A0446A41A64416343D8
:102F90001B0D77455BB21BD092F906409C421CD0BA
:102FA00092F912409C4223D092F91E409C4221D0BB
:102FB00092F92A409C4208BF03240FD0114A0024F2
:102FC000157813708571C1E88F4F8CF31088F0BDB0
:102FD000B2680D4C42F82540F0E7002404EB4404AD
:102FE00002EB8402FF2494714BF601549480E5E7D0
:102FF0000124F3E70224F1E7AD26002000ED00E014
:10300000EC1B0020F88702201101001010B5074CBE
:1030100082B001460523002200940548FFF7A2FD77
:103020000028A8BFC0F1330002B010BDA87D001079
:10303000FE870220014B0B4403607047A42600204A
:1030400070B5104C104DAC420ED2FF26236863B110
:10305000FFF7C8FD01462046FFF7ECFFA680BFF34F
:103060005F8F0834AC42F1D370BDFFF7BBFD014662
:103070002046FFF7DFFF2671BFF35F8F0834AC42B5
:10308000E4D370BDE0210020F021002010B50446FB
:10309000FFF7A8FD01462046FFF7CCFFFF23237171
:1030A000BFF35F8F10BD00BF10B504460120FFF7CE
:1030B000A5FD034B03442360BFF35F8F10BD00BF2A
:1030C000A4260020024B0B440360BFF35F8F7047C0
:1030D000A42600200D4B1A68EFF3108172B6D2E8D7
:1030E000CFCF0120BCF1000FF9D1C2E84C0FBCF1E9
:1030F000000FF4D1BFF35F8F00221B68C3E88F2F4E
:1031000081F3108840BF002000217047A82F0020C5
:103110002DE9F04F2DED028B85B0EFF30583DBB287
:10312000103B9A0818BF01224FF0010103F0030B76
:1031300018BFAF4DAF4B08BFAF4D0BEB820253F83A
:10314000226001FA0BF205F541539FEDA78B019226
:103150005A602FE0B3881C0440F19380B379002BB0
:1031600040F0DD80B6F90820002AC0F21E817369A4
:1031700002EB420203EBC203D3E90247B7F1FF3F80
:1031800008BFB4F1FF3F0ED005EB8B01AB6A0A69B3
:10319000D21AE31A934205D301232A6A03FA0BF3E6
:1031A000134200D10C61284600F01CFCA042B9413A
:1031B000C0F2FB80B6F90830019A002B0093EA6355
:1031C000C8DBD6F8148003EB4309284608EBC9078F
:1031D000D7E9024A00F006FCA04271EB0A01B9DB14
:1031E000BAF1000FC0F2C380D7E90431834A934299
:1031F00000F0ED807A88B6F9080092B242EA004009
:10320000984702460B4652EA030100F0B080002BBB
:1032100080F2D180B4EB020E6AEB030A38F9393040
:10322000C7E902EA002B95DB716903EB430201EB6E
:10323000C202D2E90270BE457AEB000C4FEA4302AB
:1032400088DBB4462CF8083F06E003EB430001EBB3
:10325000C0005A00D0E90270BE451A447AEB000063
:1032600001EBC20404DB31F93230A446002BECDA66
:1032700028F83930009BACF80030B3881C043FF5C7
:103280006DAF3369EFF3108272B6D3E8CF0F01212F
:103290000028FAD1C3E8401F0028F6D1BFF35F8FA2
:1032A0004FF6FF74B0880023316900B2B480C1E8E2
:1032B0008F3F82F310889842FFF650AF0746A94629
:1032C000746906F1080807EB470E04EBCE03D3E957
:1032D0000250B6F90830C446002B13DBB246009703
:1032E00004E034F936309446002B09DB03EB430647
:1032F00004EBC602D2E90271BD4270EB0101F0DAC3
:103300005646009FACF8007034F93E7024F83E3009
:10331000002FD8DAB3794D46002B3FF423AF0023BA
:10332000B371B6F9083006F10808581C3DD01A46AA
:10333000776903E08046591C3FF416AF03EB430165
:1033400007EBC100B0F802C01C461CF4004F9E46BB
:1033500037F93130EED0944280ED028B05D0A8F8D9
:103360000030328927F8312034817246E3E738F89B
:10337000393033813369EFF3108272B6D3E8CF0F5F
:1033800001210028FAD1C3E8401F0028F6D1BFF37D
:103390005F8F7388316928F83930009B7380002370
:1033A000C1E88F3F82F31088D4E640BF05B0BDEC82
:1033B000028BBDE8F08F2846CDE9022300F012FB16
:1033C000029A039B10EB020E43EB010A26E7084624
:1033D0000B69029198470028C9D00299D1E90023CE
:1033E00011E700BFAFF30080FFFFFFFFFFFFFFFF0C
:1033F00000800B40782F002000000B40113100109E
:103400002DE9F84F364C25692DB1BDE8F84F0A215A
:103410003448FFF70FBEDFF8E4800321404600F098
:10342000CFFA0326C4F80C80FFF7DCFB4FF0504CBA
:103430002D4B267003442361DCF800300F216370AC
:10344000636961801D834FF00405A3F878504FF045
:103450000505A3F890504FF00605A3F8A8504FF0CB
:1034600007050E214FF6FF7208274FF00A0EA3F84A
:10347000C0504FF001094FF00C0C4FF0020B4FF011
:10348000090A0D204FF00B05A3F868111749A28017
:10349000A3F808E1A160A3F848B0A3F8F0A0A3F84E
:1034A0002051A3F838C1A3F85001A3F83090A3F835
:1034B0006060A3F8D8701A800D4B3046C8F82070B1
:1034C0000C49DC60FFF720FC49463046FFF7DAFB89
:1034D000094B0A211F640348BDE8F84FFFF7AABD56
:1034E000341C0020A82F0020A4260020FFFF10007D
:1034F000782F00201131001000200B4000000B40FD
:1035000000487047341C0020F8B59DF82050044650
:1035100017461E4635B900F06DFA874266EB010189
:1035200000295CDB2169EFF3108372B6D1E8CF0F7D
:1035300001220028FAD1C1E8402F0028F6D1BFF3BC
:103540005F8FB4F90220656902EB4201002A4FEA5D
:10355000C10C206905EBC10139DB35F80CE0A4F89A
:1035600002E04FF0000EC0E88FEF83F31088488828
:10357000069B0130C0F30E00012838BF01200B610B
:10358000079B48804B61C1E9027640EA024023690B
:10359000EFF3108172B6D3E8CF7F0126002FFAD166
:1035A000C3E8476F002FF6D1BFF35F8FA38825F8DC
:1035B0000C30A2802369C3E88FEF81F310880122C9
:1035C000E368217803F501538A405A60F8BD002270
:1035D000C0E88F2F83F310884FF0FF30F8BD2846E6
:1035E000F8BD00BF0146F0B50069EFF3108772B671
:1035F000D0E8CF5F0124002DFAD1C0E8454F002D5F
:10360000F6D1BFF35F8FB1F902E04C690EEB4E0CBF
:10361000BEF1000F4FEACC05086904EBCC0C3CDB93
:10362000665B4E800026C0E88F6F87F31088BCF879
:103630000200CCE902230130C0F30E00012838BF9C
:103640000120059BACF80200CCF81030069B40EA44
:103650000E40CCF814300B69EFF3108272B6D3E849
:10366000CFCF0127BCF1000FF9D1C3E84C7FBCF1EB
:10367000000FF4D1BFF35F8F8B886353A1F804E090
:103680000B69C3E88F6F82F310880122CB68097839
:1036900003F501538A405A60F0BD0023C0E88F3F14
:1036A00087F310884FF0FF30F0BD00BF034640891C
:1036B000B0EB214F37DD58690A1402EB420210B516
:1036C00000EBC2001C69EFF3108C72B6D4E8CFEFA8
:1036D0000122BEF1000FF9D1C4E84E2FBEF1000F58
:1036E000F4D1BFF35F8F428889B292B28A4207D089
:1036F00000221B69C3E88F2F8CF31088002010BDB7
:1037000042F4004242800121002218699971C0E808
:103710008F2F8CF310881C78DA68084602F5015365
:10372000A140596010BD0020704700BF407870472D
:103730002DE9F04306460D4683B0EFF30584E4B26D
:103740003CB12D4B5A6AAA421CD2002003B0BDE8FE
:10375000F0832A4FD7F80C9097F80080484600F085
:1037600041F908F1040859F828301B1A301A65EBA2
:103770000101984271F1000110DB20BF1E4B5A6A13
:10378000AA42E2D314BF012400249B6AB34234BF8F
:10379000204644F0010003B0BDE8F08300F02AF9B0
:1037A000864265EB0101002914DB154B3846CDE953
:1037B000003432462B46FFF715FF011E0ADD0E4B83
:1037C0005A6AAA4216D39B6AB34211D30B48FFF739
:1037D0006DFFB6E7084B5C6AAC42B6D3641B18BFFA
:1037E00001249B6AB34234BF204644F00100ADE798
:1037F000AA42EBD120BFE9E700000B40341C0020B7
:10380000D53000102DE9F0410446DDE9071552EAF4
:10381000030072D0002B16461F4673DB0698C5E9DD
:1038200000232861AC60696100F0E4F84FF0FF32DA
:103830006FF00043801947EB0107824273EB0701E9
:103840003CBF1F4610462369EFF3108272B6D3E8DF
:10385000CF6F0121002EFAD1C3E8461F002EF6D10A
:10386000BFF35F8FB4F90210666901EB41030029D1
:103870004FEAC30CD4F8108006EBC30346DB36F8DE
:103880000CE0A4F802E04FF0000EC8E88FEF82F3DE
:1038900010885A88C3E902070132C2F30E02012AD6
:1038A00038BF01221E485A805D61186142EA014218
:1038B0002369EFF3108072B6D3E8CF8F0127B8F1F8
:1038C000000FF9D1C3E8487FB8F1000FF4D1BFF37E
:1038D0005F8FA38826F80C30A1802369C3E88FEF9F
:1038E00080F3108801202178E36800FA01F103F5E4
:1038F00001535960EA60BDE8F08101260027324695
:103900003B468BE7564263EB430787E70020C8E856
:103910008F0F82F310884FF0FF32EA60BDE8F0812C
:10392000113100100246C06800B970479168031455
:10393000B1F80AC0BCEB204F3DDD30B54C6903EB5C
:10394000430304EBC30C0B69EFF3108E72B6D3E89C
:10395000CF5F0124002DFAD1C3E8454F002DF6D1E9
:10396000BFF35F8F83B2BCF8020080B2834209D0FC
:1039700000230969C1E88F3F8EF3108800230020DF
:10398000D36030BD43F40043ACF802304FF0010C7B
:103990000023086981F806C0C0E88F3F8EF31088C5
:1039A000CB68097803F501530CFA01F15960002343
:1039B0006046D36030BD00230020D360704700BF55
:1039C00010B4054B054C064AA04214BF1846581CBB
:1039D0005DF8044BFFF79AB8D42A002000800B4012
:1039E000C47D00100346416A0A46986A596A8A42B1
:1039F000FAD17047034B596A0A46986A596A91424C
:103A0000FAD1704700000B4000EB400C4FEA8C0CE1
:103A10000CF1804C0CF5803CF0B51646DCF8042027
:103A2000051FB2F5803F38BF4FF48032EDB238BF8A
:103A3000CCF80420012D2AD94FF40067254C0CF551
:103A40004052176054F82020B2B9DCF80020012D54
:103A500082EA461202F0E0020CF5805632602AD962
:103A60004FF4006144F820304FF480330CF50052DD
:103A70001160CCF80430F0BD6769B7FBF2FE0EF1BF
:103A8000010E0EEB4E0EBEF1030EFCD2DDE7012956
:103A9000D2D103240CF540521460DCF80820D20780
:103AA000FBD5DCF800200B4C82EA461202F0E00263
:103AB0000CF5805632600122DCF800504D4005F0D4
:103AC0000305356002FA01F1DCF808200A42FBD058
:103AD000C6E700BFDC2A0020014B53F820007047E6
:103AE000DC2A0020584B2DE9F0431C6C1746B4F536
:103AF000803F38BF4FF4803283B038BF1A6403224E
:103B000080460E46514B504DDA636C6CE307FCD592
:103B1000EB6B4F4A83F0200303F0E003D363EB6BBE
:103B2000494D83F0010303F00303D3636C6CA407D6
:103B3000FCD54FF400624FF48039464B464CDA63B3
:103B4000464B4246636101213346C5F840904448E4
:103B5000009700F057F94FF400616B6B07FB06F616
:103B60004B4538BFC5F83490384B2269B8FBF6F6A0
:103B700019633AB16369B3FBF2F3013303EB430317
:103B8000033BFDD23049324A0B6B03F0E003136371
:103B90000B6B83F0020303F0030313638B6B580773
:103BA000FCD54FF400654FF480332A4A15632D4A43
:103BB0004B6322610A6C9A424FF0030238BF0B64D8
:103BC000224B2149DA634B6CDA07FCD5CB6B204AD8
:103BD00003F0E003D363CB6B1B4983F0010303F0D5
:103BE0000303D3634B6C9B07FCD54FF480334FF436
:103BF0000065184A6661D5630B64CA6C9A4238BF87
:103C0000CB644FF40061114BA26999643AB16369C6
:103C1000B3FBF2F3013303EB4303033BFDD24FF459
:103C200000604FF48031084A094D936C83F04003E3
:103C300003F0E003AB64074B084DA5619864D164C1
:103C400003B0BDE8F08300BF000001400030014038
:103C50000010014000200140DC2A0020006CDC0242
:103C600000000540001BB7002DE9F04F4FF4A0788D
:103C7000994685B0CDE902125F4CDFF884A1544526
:103C80000AD908F1FF38A4F53B54B8F10F0FA4F19D
:103C90002004F4D1002069E0072304F537220194C1
:103CA00003FB03F402F5D872B2FBF4FE70454FF04B
:103CB000010C4FF002074FF003064FF004054FF0E0
:103CC00005013FD0B3F1010E00F094800EFB03F428
:103CD000B2FBF4FB58454CD019B301FB03F4B2FB23
:103CE000F4FB58454FD0E5B105FB03F4B2FBF4FB00
:103CF000584553D0AEB106FB03F4B2FBF4FB584574
:103D000057D077B107FB03F4B2FBF4FB58455BD007
:103D1000BCF1000F05D00CFB03F4B2FBF4FB8345B0
:103D20005DD0734603FB03F4B2FBF4FE704501F172
:103D3000FF3105F1FF3506F1FF3607F1FF370CF1D2
:103D4000FF3CBFD104FB1024002CBBD19E464A4649
:103D5000DDF808B0DDF80C900120284901FB08F1DE
:103D6000CBF80010C9F80030C2F800E005B0BDE89B
:103D7000F08F04FB1024002CAED14A46DDF808B0C9
:103D8000DDF80C90E8E704FB1024002CABD14A4688
:103D90008E46DDF808B0DDF80C90DDE704FB10245A
:103DA000002CA7D14A46AE46DDF808B0DDF80C90ED
:103DB000D2E704FB1024002CA3D14A46B646DDF816
:103DC00008B0DDF80C90C7E704FB1024002C9FD14D
:103DD0004A46BE46DDF808B0DDF80C90BCE704FBAF
:103DE0001024002C9DD14A46E646DDF808B0DDF8E7
:103DF0000C90B1E7019C44E750262F00001BB70050
:103E000050F80C0070B4039D04682D0345EA034587
:103E10001B4B002CB3FBF1F3B2FBF3F61FDB194A8B
:103E2000194B904214BF4FF480424FF40042174C9C
:103E30001A6003F580531A60A36832EA0303FBD1CA
:103E4000212200F540530433016086601A60026845
:103E5000002AFCDA0822C5601A6070BC704703684B
:103E600003F03F038B42DAD18368C3F30B03B34201
:103E7000D5D1C36803F4EE23AB42D0D1EDE700BF48
:103E8000001BB700008005400020024000000240F7
:103E900030B44FF080441C4B1C60E0B11B4CA3F5C8
:103EA0004053DC611A4C40F0010044401C625962EE
:103EB00098624FF080454FF0E061134B1548164C67
:103EC0001D60846019604AB930BC4FF00042A3F510
:103ED00080531A607047114BD861EAE74FF47A7348
:103EE00003FB02F2B2F1807F2ABF6FF07F431346DB
:103EF0001A464FF080410A4C08482360094B426043
:103F000030BC1960704700BF00B00D40D3C007B08F
:103F10002D3FF84F00A00140F3FFFF0100800D404E
:103F20004C2F002000A00D40012300EB400080003A
:103F300000F1804000F5841041600360704700BFCD
:103F4000002370B5DB8A04460D46002242E800F2E9
:103F5000520254BF1021042144F252209847864651
:103F60002B462246F446BDE870400A214FF481708A
:103F7000604700BF0023DB8A002242E800F25202C1
:103F800001D4102118470421184700BF08B5034683
:103F90000846191E02DB1AB140F03000FFF7D0FFCF
:103FA00040F02000FAE700BF034AD2F82838002B7F
:103FB000FBD0BFF35F8F704700000E400021044B21
:103FC000044ABFF35F8F43F8041B9342F9D1704753
:103FD0000C080E402C080E4010B44FF48D704FF4B6
:103FE0002A64064A064B07491460D060196053687A
:103FF000002BFCDA5DF8044B704700BF00800440E2
:1040000000A0044000B0FA00704700BF08B50148A6
:10401000FEF748FDE87D001038B5054C054DAC4273
:1040200004D254F8043B9847AC42FAD338BD00BFE1
:10403000B87B0010F87B001038B5054C054DAC423C
:1040400004D254F8043B9847AC42FAD338BD00BFC1
:10405000E47B0010F87B001010B40748074C084BB5
:10406000084A094904601A608B6832EA0303FBD1ED
:104070005DF8044B704700BF002002407F3BEFEF2C
:1040800000300240F6FFF30300000240044BDB6CFB
:10409000B3F5004F03D14FF48022024BDA6470472E
:1040A00000001150002011504FF0E022044BD2F8D4
:1040B000881D0B43C2F8883D10EE3004704700BFE6
:1040C000030330006FF06041044B054A19609368A8
:1040D000DB4333F06043FAD1704700BF0030024049
:1040E0000000024010B545F25320FFF743FFBDE842
:1040F000104003460420184710B545F25320FFF73F
:1041000039FFBDE81040034601201847FEF78EBD79
:104110001449154B70B55C1AA610442E324628BFC0
:104120004422124D9200284603F022FBB4F5867F0C
:1041300013D80F4AC6F1440012D02B19410803EBE3
:10414000C101C3E9002208338B42FAD1C30704D569
:1041500020F00100304445F82020064B9D6070BDE2
:104160004320F8E7000000101001001000000020BC
:104170001101001000ED00E0002370B52B4C82B05F
:10418000C4F88430FFF728FF0122294BDA63636CFF
:10419000012BFCD10321264A244B11639C6B012C7B
:1041A000FCD10226052521460523224A22480096F5
:1041B000FFF728FE21462B46204A21480095FFF7AD
:1041C00021FE0022042031461E4BFFF71DFC214634
:1041D000284600221C4BFFF717FC0022082011463E
:1041E0001A4BFFF711FC002209201146174BFFF76D
:1041F0000BFC002206201146134BFFF705FC0022A2
:10420000114B07201146FFF7FFFB0420FFF764FC6A
:1042100000240F4BA3FB0035AD0CE0B2294601345E
:10422000FFF782FE062CF8D102B070BD00000140FD
:1042300000300140002F685900000540008C86477F
:1042400000800540001BB70080D1F008006CDC0244
:1042500083DE1B4338B50446094803F095FC20462D
:1042600002F036FF0546064803F08AFC2DB1054BE7
:104270002C449C4201D8284638BD0348FEF712FC66
:10428000E021002000000820F47D001010B5044655
:10429000054803F079FC204602F022FFBDE81040FB
:1042A000014803F06DBC00BFE021002000B9704759
:1042B00000F02EB910B5094B84B01C684CB1034610
:1042C00000914FF0FF3203A90548A047012004B038
:1042D00010BD00F05FF9204604B010BD482F00204B
:1042E000AD42001000BEFDE7074A0346106838B132
:1042F000064903448B428CBF4FF0FF301360704778
:10430000034908461160F3E7402B00200000082015
:104310000088022008B5FFF7E5FF00BF38B5064C5E
:10432000064DFFF779FEAC4204D254F8043B98479F
:10433000AC42FAD338BD00BFF87B0010007C0010FF
:1043400003680846114618472DE9F0411546427D9D
:1043500007468846002A46D0002D1DDD0B780A2B23
:1043600023D0012D4FF0000C18D04646012416F83A
:10437000012F21460A2A04F1010422D0A542F6D1D8
:1043800065450BDC08EB050313F8013CA3F10D03B5
:10439000B3FA83F35B093B75BDE8F0813B68A5EB9D
:1043A0000C0108EB0C009847ECE7037D002BD8D1FB
:1043B000036802210F489847012DE3D04FF0010C0C
:1043C000D3E716F8013C0D2BD8D08C4508EB0C0038
:1043D000A1EB0C0101DA3B689847022105483B68D4
:1043E0009847A446CAE7294640463B68BDE8F041E5
:1043F000184700BFD4A500102DE9F04782B00D4644
:1044000091461C460646FFF7F5FA4FF0FF3C6FF069
:1044100000472E4A821841F10003944577EB0301CF
:104420003CBF62463B462A4803F0BAFB6B1C804601
:1044300040D00CB3274F284B1C68B4B1B9F1000F22
:104440001CD1DFF89C9001E0246974B12368002B33
:10445000FAD0D9F800300BB19C42F5D120462A465B
:104460003146B8472469002CF0D1B8F1000F26D1AD
:10447000284602B0BDE8F087184FDCE74FF00A0A83
:10448000DFF85C9002E02469002CEED02368002B5A
:10449000F9D0D9F800300BB1A342F4D12A46314605
:1044A0002046B847012220460DF107018DF807A0EC
:1044B000B847E8E7304603F0D1F90546B9E70448C4
:1044C00003F05EFB284602B0BDE8F08740420F00D3
:1044D000E8210020494300102C2B0020414300100C
:1044E000382B0020084A136823B90AE003F11002B0
:1044F0001B6933B18342F9D129B918691060196178
:10450000704701B1106070472C2B002000F06EBA8C
:10451000F0B583B006468DF80700FFF76BFA4FF051
:10452000FF356FF00044174A821841F100039542AD
:1045300074EB03013CBF23462A46134803F030FBCB
:10454000124B07461C689CB1114D01E024697CB1F7
:104550002368002BFAD02B680BB19C42F6D1204681
:1045600001220DF10701FFF7EFFE2469002CEFD1C6
:1045700017B9304603B0F0BD034803F001FB3046E5
:1045800003B0F0BD40420F00E82100202C2B00209A
:10459000382B002038B5044603F060F901230546A6
:1045A0001A4620462946FFF727FF084B1C682CB106
:1045B00063682BB198472469002CF9D1284638BD8F
:1045C0002469002CF4D1284638BD00BF2C2B0020D4
:1045D000704700BF0022014B1A707047F987022014
:1045E0004B79FF2B0BD1887948B9CB79012B07D1B7
:1045F000082A05D9034B8A7809201A7070470020D1
:10460000704700BFF987022001207047012901D0BF
:104610000120704708B5104B91881B78994201D052
:10462000002008BD5378012B08D0022BF8D10021BF
:1046300064220846FFF72CFC012008BD5188CB05F9
:1046400048BF480AC1F3402258BF4FF0FF3001F085
:104650007F01FFF79BFC00BFF987022000487047ED
:10466000A0A60010012907D15378012B02D193880D
:10467000072B03D000207047012070471146A62366
:10468000014A01F039BA00BFF8A500100346012223
:1046900001481A70704700BFD8A5001008B50B6814
:1046A000B3F5966F00D008BD00224FF0FF301146E1
:1046B000FFF76CFC024A034B10601960704700BFA3
:1046C000C82A0020CC2A0020184B70B51A68002A8E
:1046D00028D0EFF3108172B6D2E8CF4F0120002C22
:1046E000FAD1C2E8440F002CF6D1BFF35F8F00224D
:1046F0000F4C186859602270C0E88F2F81F3108822
:10470000002400250B4E3078FEF7D2FA20B90024A1
:1047100000252046294670BD3078FEF7D9FA20469C
:10472000294670BD4FF47A740025EBE7702F002006
:10473000FB870220FA870220014B1878FEF7C8BADF
:10474000FA87022038B5044600200D4601F004FB2C
:10475000A8B3002001F016FB88B3FFF74BF94FF028
:10476000FF3E6FF0004C174A821841F10003964556
:104770007CEB03013CBF72466346134803F010FA1A
:10478000E8B1002001F0E8FA58B900214FF0FF30FD
:1047900000F00AFD6FF002040B4803F0F1F9204627
:1047A00038BD002001F0EEFA0028EED021462A465E
:1047B000002001F0F1FA04460028EDD1EAE76FF09D
:1047C0000204ECE740420F00AC2F002008B5FFF7D1
:1047D00011F94FF0FF3E6FF0004C0F4A821841F183
:1047E000000396457CEB03013CBF724663460B48D1
:1047F00003F0D6F970B14FF0FF30002100F0D4FC87
:10480000002001F011FB0028F5D1BDE80840034865
:1048100003F0B6B908BD00BF40420F00AC2F002026
:104820002DE9F84380460F46FFF7E4F84FF0FF35D7
:104830006FF00044334A821841F10003954274EB53
:1048400003013CBF2A4623462F4803F0A9F908B9C3
:10485000BDE8F883002001F07FFA002847D0002F40
:1048600040DD0025DFF8A890284E13E02246002006
:1048700001F020FB002104464FF0FF3000F094FCD3
:10488000002001F0D1FAFFF7B5F8C9E9000125448D
:10489000AF4227DD002001F02DFB7C1B8442A8BF26
:1048A000044608EB0501002CE0D121464FF0FF3013
:1048B00000F07AFC204601F0B7FA204601F04CFAED
:1048C00080B1204601F016FB0028E1D1FFF792F8F5
:1048D000D9F80030D9F804209B1942F10002834234
:1048E0008A41D5D20848BDE8F84303F049B9002011
:1048F0000021074BC3E90001BDE8F843024803F07B
:104900003FB900BF40420F00AC2F002020A107009C
:104910007023002030B5002185B02E4803F044F903
:10492000F0B92D4B1A68CAB1EFF3108172B6D2E814
:10493000CF5F0124002DFAD1C2E8454F002DF6D1FA
:10494000BFF35F8F254C1D6822785960D3B20122D6
:104950002270C5E88F0F81F31088CBB105B030BD50
:1049600000214FF0FF3000F01FFC002001F00AFA98
:104970000446184803F004F9002CEFD0184B1B68CC
:10498000002BEBD0174A106805B0BDE8304018473F
:10499000FEF7B6FD0446FFF72DF84FF0FF3C6FF031
:1049A000004510F57A7241F10003944575EB03015F
:1049B00038BF2B464FF000014FF0010520460A4C4E
:1049C00038BF6246CDE901150094FEF79DFD05B0A4
:1049D00030BD00BFAC2F0020702F0020FB870220CD
:1049E000C82A0020CC2A0020C94600104FF05043AE
:1049F00030B585B01C68FEF783FDFEF797FEA04238
:104A000002D0002005B030BD00212A4B08461B789B
:104A100001F038FD28480368002B47D00120FEF73D
:104A2000F5FA0346254C2649C0B22370FEF76CF90F
:104A300020780121FEF726F90E20FEF755F940BB3C
:104A4000204B0125C3E90000FEF75AFD0446FEF79E
:104A5000D1FF4FF0FF3E6FF0004C10F57A7241F13C
:104A6000000396457CEB03014FF000012046164CF5
:104A70003CBF72466346CDE901150094FEF744FD44
:104A80000028BEDB01211148FFF72CFD012005B0F5
:104A900030BD0120FEF7B2F801460A48FEF712FBCE
:104AA00000220E200A49FEF75FF9EBE7FEF7EEFA67
:104AB000B4E700BFB8A70010AC2F0020FA8702208F
:104AC00015490010702F0020C94600104C1C002012
:104AD00039470010004870473CA700100048704755
:104AE000E8A6001038B5184B04461A780AB344B942
:104AF00040F209424FF44173144D6A8013482B80F1
:104B000038BD052C1DD8124B104D53F824102846E3
:104B10000023013903E0132B20F8022F0ED011F8E7
:104B2000012F0133DBB2002AF5D15B0043F440735F
:104B3000E4E71121184600F025F8D8E74FF44A734E
:104B4000DCE7002038BD00BFB82F0020042B002078
:104B5000D0A6001000B545F247308BB0FFF70AFA37
:104B600001220346092101A89847DDE903320449DF
:104B700012BA1BBAC1E900230BB05DF804FB00BFF9
:104B8000982F0020012901F1FF3300F0B3805D4927
:104B90000A784FEA121C9F2A8CBF0CF1370C0CF1DB
:104BA000300C012B80F800C000F0A78002F00F024B
:104BB000092A8CBF37323032022B427000F09D80C0
:104BC0004A784FEA121C9F2A8CBF0CF1370C0CF16B
:104BD000300C032B80F802C000F08F8002F00F022F
:104BE000092A8CBF37323032042BC27000F0858026
:104BF0008A784FEA121C9F2A8CBF0CF1370C0CF1FB
:104C0000300C052B80F804C077D002F00F02092A7F
:104C10008CBF37323032062B42716ED0CA784FEAE1
:104C2000121C9F2A8CBF0CF1370C0CF1300C072B97
:104C300080F806C061D002F00F02092A8CBF37321B
:104C40003032082BC27158D00A794FEA121C9F2AC1
:104C50008CBF0CF1370C0CF1300C092B80F808C01C
:104C60004BD002F00F02092A8CBF373230320A2BA8
:104C7000427242D04A794FEA121C9F2A8CBF0CF133
:104C8000370C0CF1300C0B2B80F80AC035D002F039
:104C90000F02092A8CBF373230320C2BC2722CD053
:104CA0008A794FEA121C9F2A8CBF0CF1370C0CF149
:104CB000300C0D2B80F80CC01FD002F00F02092A17
:104CC0008CBF373230320E2B427316D0CA7911099D
:104CD0009F2A8CBF373130310F2B81730DD002F0FA
:104CE0000F02092A94BF30323732102BC27318BF1B
:104CF000103002D000230370704718440023037063
:104D0000704700BF982F002070B500F02DF90C23DC
:104D10004026194CFF22A3670E201849FEF724F8FD
:104D200032460021164802F0ABFC01250023802109
:104D30001348144A418445700683068782604360A5
:104D4000136042F8043C80F8213080F83B30436225
:104D50000D4B4FF00056C360C362803B836202F08C
:104D60000BFF4FF480320949094B25642846E6645D
:104D7000C4F89010DA6470BD00001150E5100020F6
:104D8000482B0020840010500001105010D001006A
:104D90000020115001210E20FDF774BF00220248AF
:104DA000114600F001B900BF682B0020044B1970B8
:104DB00021B14FF40032034BC3F89020704700BF7D
:104DC000F5870220002011500B785B0602D14B784A
:104DD000052B00D070474B88014ADBB21360704747
:104DE00000001150CB782DE9F04103F0030EBEF125
:104DF000010FC3F301005BD0002791F802C0344CCF
:104E00000CF07F025600898806EBDC1304EB431399
:104E10004FEADC15D876C1F30A0185F0010083F86A
:104E200002C019835870DF70D3008DBB294804334A
:104E300004EB821C03EB0008CCF808801F5082B3FF
:104E4000254BD2001344CCF80430244B3F311A6870
:104E500021F03F01BEF1020F08BF49001144196063
:104E60001F4B771904EB47179942FA602BD82E4451
:104E700004EB4613D97E82F0A04282F480125B6874
:104E800042EA816242F000421A600120BDE8F081EE
:104E9000104804EB821C0344CCF8283040F83270F0
:104EA0004AB900220F4904EB4513D9605A60ECE778
:104EB0000020BDE8F081D20002F1A04202F580128C
:104EC000CCF82420C1E7FFF7A1F8FA68CFE700BFCC
:104ED000482B00208000105004001050542F002058
:104EE000FF0F10500001105002F046BE8C4608B56E
:104EF000114607481A460CF07F034FEADC1C0CEB06
:104F0000430C00EB4C1000F04FF8012008BD00BF2F
:104F1000482B002011F07F0205D100290CBF022090
:104F20000120064B9866C909054B01EB420003EBD3
:104F300040104FF40062002102F02EBE00201150FC
:104F4000482B002011F07F0300D170470022054854
:104F50005B0003EBD11300EB43106FF40061C270F0
:104F600002F01ABE482B00204FF0805209480A492F
:104F700008B50A4B02600A609968C94311F0805174
:104F8000FAD14FF48052064802F07AFB0922054B11
:104F90005A6708BD00200240003002400000024075
:104FA000000010500000115000234FF0010C10B50C
:104FB00080F81AC08282C3820161044602F0E8FDD3
:104FC00020B14FF40032074BC3F89020204602F086
:104FD000EFFD10B10123237710BD2046BDE810403E
:104FE00002F0C6BD002011502DE9F04100241D4EF5
:104FF000054623463278DFF878801B4F0DE03B688A
:1050000013EB441324D0DB682846984732780134E8
:10501000E4B2511CA142234606DBA242A3EB0203E9
:10502000EDD808EB4313EEE7542200210F4802F0BD
:1050300027FB4FF0FF330D482022041D4360C4E9D5
:105040000133E360FF21BDE8F041143002F018BBEA
:105050004FF0E023D3F8F03DDB0700D500BEBDE8FC
:10506000F08100BFF487022000250020D026002018
:1050700050A70010704700BF704700BF0020704766
:1050800000207047704700BF704700BF704700BFE7
:10509000704700BF024B5878003818BF0120704796
:1050A000D0260020024B1878C0F38000704700BF64
:1050B000D02600202DE9F047DFF8E4A09AF8003070
:1050C000FF2B56D10E4600293ED000215422074620
:1050D000294802F0D5FA0022284C294B20461A70A4
:1050E000FDF7D4FF274B28481C60284CFDF7DCFF58
:1050F000204601F0ABFD264A264B146023B126481A
:10510000FFF7C4FA254B18600024234D23462A7864
:10511000DFF89090DFF884800EE0D8F8003013EBD1
:10512000441311D05B687BB198472A780134E4B20C
:10513000511CA142234611DBA242EED89B1A09EB77
:1051400043135B68002BEFD14FF0E023D3F8F03D21
:10515000DB0700D500BE0020BDE8F08731463846A9
:105160008AF80070FFF7D0FD0028EDD03846FFF731
:1051700011FE0120BDE8F087D0260020C8260020BF
:10518000F687022024270020781C0020641C0020C1
:10519000282700208D460010F487022000250020DB
:1051A000801C002050A700102DE9F04FDFF8C892B6
:1051B0008BB099F80030FF2B00F0F180A84CA94D7E
:1051C000DFF8B0A2DFF8B4B226687369EFF310829B
:1051D00072B6D3E8CF0F01210028FAD1C3E8401FEF
:1051E0000028F6D1BFF35F8FB261304607A901F006
:1051F00077FB00237269C2E88F3FB36983F310889D
:10520000002800F0CC809DF81D30013B072B00F2F8
:105210007D83DFE803F0A7B1959D8E350A04089BD6
:10522000002BD1D009989847CEE79DF8201001F0C7
:105230007F0605EB460000EBD11090F8343023F0E8
:10524000010380F8343090F8343023F0040380F800
:105250003430002E00F0A680037D9AF8002093429F
:1052600080F09380804A126812EB431300F0908024
:105270009E699DF82120099B9DF81C00B047A3E77B
:105280009BF80030002B00F083809BF80030013B3E
:10529000DBB28BF800309BF8003003F0FF00002BEE
:1052A00092D1704F9DF81C803B7843F001033B7016
:1052B00097F8343060F3000387F8343097F83430CF
:1052C00060F3820387F8343097F8353060F30003D9
:1052D00087F8353097F8353060F3820387F835303A
:1052E00000F06CFC9DF8203003F06002602A6CD066
:1052F000402A7CD003F01F03012B00F0C180022B59
:1053000000F08180002B60D1202A00F0E981002A82
:105310005BD19DF82130092B57D8DFE813F0B0019D
:10532000A2015600C101560095016B0156006001B3
:10533000F4002B78D9077FF547AFFFF7A9FE43E7C5
:10534000EB78DA077FF540AF0898FFF795FE3BE76B
:105350002B78D8077FF538AF2878C0F3C000FFF767
:1053600095FE31E79DF81C00FFF73EFE00F01CFCA7
:105370009DF82030AB7027E79DF81C00FFF734FE46
:1053800000F012FCFFF780FE1EE7501C984211DA75
:105390004FF0E023D3F8F03DDC0700D500BE0BB0A2
:1053A000BDE8F08F099B9DF821209DF81C0000F0BE
:1053B00019FC09E79B1A2D4A02EB431358E7FFF744
:1053C0008DFB0246002840F082814FF0E023D3F8A5
:1053D000F03DDE0700D500BE9DF81C000021FFF760
:1053E00099FD80219DF81C00FFF794FDECE6204814
:1053F00000F0E4FB0121404608AAFFF733F900283A
:105400007FF4E2AEE8E79DF8241011F0700FDCD1D4
:1054100001F07F0607EB4600164B00EBD1101B781E
:10542000007D7600019698424FEAD116009659D336
:105430005E1C8642C0F26681C01A0C4B03EB40161C
:10544000002A00F06381706900F0B8FB012140463A
:10545000736908AA984700287FF4B6AEBCE700BF7E
:1054600028270020D02600200025002050A700106B
:1054700065460010F4870220801C0020F687022079
:105480009DF824300F2BA7D8AE4A3B441B791278E5
:10549000934232D3511C99429EDBAB4E9B1A06EBD2
:1054A0004316706900F08AFB01214046736908AA1F
:1054B000984700287FF488AE9DF8203013F06006EE
:1054C0008AD19DF821300A3B012B85D800F076FB6C
:1054D0009DF821300A2B00F0F281404608A900F027
:1054E000F1FA71E6994B1B6803EB4016002A00F0B5
:1054F0000D81002E3FF470AFA5E7944A166816EBB5
:105500004316CED168E77B789DF822609E4200F07A
:105510004F817B78002B40F0BE817E70002E00F022
:105520004581701EC0B2FFF7D9FA0346002800F08B
:105530005F814278022A40F05B81C17903F109065C
:10554000C1F340121201C1F3801142EA4112314607
:10555000387820F0300002433A705A88CDF80C8039
:105560009A180192019B8B4240F2A4814A780B2A3F
:1055700000F0AF810123042A40F03A810026019A0D
:105580000096521A92B202926E4A049312781DE06B
:105590006E4B1B6813EB461800F02A81029AD8F86C
:1055A000103003980591984708280246059906F19E
:1055B000010303D90298904280F0FF80DEB2614B74
:1055C00000961A78531C9E4200F31281009BB2424F
:1055D000A3EB0202DCD85C4B03EB4218DEE77B78DE
:1055E00040468DF81A300DF11A02012308A900F087
:1055F00083FAE9E5BDF82200030A013B020AC0B2C2
:105600000E2B3FF6E9AE01A151F823F0215800100E
:10561000BD5600105D580010D9530010D95300102A
:105620003F580010BD560010D9530010D953001038
:10563000D9530010D9530010D9530010D95300107A
:10564000D95300101358001008A800F0BDFA4046C6
:105650009DF82210FFF7A2FB3B7843F002033B705A
:10566000B2E5BDF82230012B7FF4B6AE3B78404660
:1056700023F0080308A93B7000F024FAA4E5404693
:105680003B789A0802F00202C3F340131343ADF8CB
:105690001A300DF11A02022308A900F02DFA93E541
:1056A000BDF82230012B7FF497AE3B78404643F0A3
:1056B000080308A93B7000F005FA85E5022A3FF4CB
:1056C0007EAEFFF7DDFC024600283FF485AE404683
:1056D000538808A900F010FA00287FF475AD7BE626
:1056E0009DF824300F2B3FF677AE164A3B441B79CA
:1056F000127893421DD2154A166816EB43167FF4B2
:10570000A2AE69E6002A7FF467AE00269DF821204C
:1057100002F0FD03012B1BD0002A7FF456AE019B43
:10572000009A3B44134493F834304046C3F340039B
:10573000ADE7511C9942FFF64FAE034E9B1A06EBA4
:10574000431680E6F487022050A7001000250020B1
:10575000BDF82230B3B9012A99F8000000F0868024
:10576000FFF7D8FB019B009A3B44134493F8342085
:1057700042F0020283F8342093F8342042F0010210
:1057800083F83420002E3FF41FAD706900F016FA44
:105790007369012108AA40469847002000F00EFADC
:1057A00097F83530DF073FF50FAD96E6FFF76CFC55
:1057B000404608A900F086F906E5049B012B00F09D
:1057C0009E80002B00F08A80002091F8028005E086
:1057D0008CF804605FFA80FC63457FD908EB000C0D
:1057E00057FA8CFC9CF804E00130BEF1FF0FEFD0BB
:1057F0004FF0E023D3F8F03DDA0700D500BE4FF0BC
:10580000E023D3F8F03DDB0700D500BE00237B701A
:10581000E2E5FEF723FF024600287FF458AFDBE500
:10582000FFF758F9024600283FF4CFAD4046122357
:1058300008A900F061F900287FF4C6ACCCE5FFF7B9
:105840001DFC024600283FF4C7AD4046137808A966
:1058500000F052F900287FF4B7ACBDE5BDF8241084
:10586000FFF740F902460028EFD1B5E50293FFF7B4
:1058700069FB019A009B3A441A4492F83410029B47
:1058800063F3410182F8341092F8341063F300019D
:1058900082F8341076E700214046FFF787FA404649
:1058A000FFF722FBBB7840460093FFF79DFB009B70
:1058B000BB7032E6DDF80C80FFF7E4FB78E740468A
:1058C000012308A90DF11A028DF81A6000F014F9ED
:1058D0007AE40A78CB7811444A784CE6334610488B
:1058E0000492029100F076FE0E4B049A02991B7806
:1058F0001144009A01339342BFF634AE78E7D8F8EA
:1059000010C00948844508BF02235DE74FF0E0233B
:10591000D3F8F03DDB077FF557AC00BE54E400BF81
:10592000E4260020F4870220F55F00102DE9F84FEF
:105930000A9F002A40D00C461E4615464FF0000A2A
:10594000DFF87C90DFF87C8018E0204698F80210A1
:1059500099F800B000F00EFEE0B121465846FFF77E
:1059600041FAF0B1A2780AF1010AD10916BF0B9BE6
:105970003A701A702278AA4514441DD06278052A1C
:105980000FD1E17801F00301B1420AD1A27812F0FF
:10599000700FDAD04FF0E023D3F8F03DDA0700D5EE
:1059A00000BE4FF0E023D3F8F03DDB0702D4002027
:1059B000BDE8F88F00BEFAE70120BDE8F88F00BF10
:1059C000801C0020D026002038B58B7813F0700F93
:1059D00008D04FF0E023D3F8F03DDB0700D500BE40
:1059E000002038BD074A084B0C46084691781D78C0
:1059F00000F0C0FD0028ECD021462846BDE8384024
:105A0000FFF7F0B9D0260020801C00200B46064A84
:105A100006481168DA09343203F07F0302EB4303CE
:105A2000184400F061BD00BF24270020D0260020CC
:105A30000B46064A06481168DA09343203F07F0340
:105A400002EB4303184400F079BD00BF2427002077
:105A5000D026002010B5194801F07F0C00EB4C0057
:105A600000EBD11090F834C01CF0010F08D04FF0BB
:105A7000E023D3F8F03DDA0700D500BE002010BDCA
:105A800000F1300494F804C00D484CF0010C00788B
:105A900084F804C0FFF72AFA0028F0D14FF0E02183
:105AA000227960F300022271227960F3820222716E
:105AB000D1F8F03DDB07E1D500BEDFE7D0260020BE
:105AC000801C002030B50B4C8C46A6460546086865
:105AD00049680023AEE803009CF800102846C9433B
